{
  "contractName": "DIYERC20Factory",
  "abi": [
    {
      "anonymous": false,
      "inputs": [],
      "name": "NewDIYERC",
      "type": "event"
    },
    {
      "inputs": [
        {
          "internalType": "uint256",
          "name": "",
          "type": "uint256"
        }
      ],
      "name": "DIYERC20s",
      "outputs": [
        {
          "internalType": "contract DIYERC20",
          "name": "",
          "type": "address"
        }
      ],
      "stateMutability": "view",
      "type": "function",
      "constant": true
    },
    {
      "inputs": [],
      "name": "createERC",
      "outputs": [],
      "stateMutability": "nonpayable",
      "type": "function"
    }
  ],
  "bytecode": "0x608060405234801561001057600080fd5b5061193a806100206000396000f3fe608060405234801561001057600080fd5b50600436106100365760003560e01c80630e2450eb1461003b578063321c06d61461006b575b600080fd5b610055600480360381019061005091906101b5565b610075565b6040516100629190610261565b60405180910390f35b6100736100b4565b005b6000818154811061008557600080fd5b906000526020600020016000915054906101000a900473ffffffffffffffffffffffffffffffffffffffff1681565b60006040516100c29061016d565b604051809103906000f0801580156100de573d6000803e3d6000fd5b509080600181540180825580915050600190039060005260206000200160009091909190916101000a81548173ffffffffffffffffffffffffffffffffffffffff021916908373ffffffffffffffffffffffffffffffffffffffff1602179055507fcccd6f8d57f17474a389b856cfc914c86db9241a49b7bbed673a671e9dede2d660405160405180910390a1565b6116888061027d83390190565b600080fd5b6000819050919050565b6101928161017f565b811461019d57600080fd5b50565b6000813590506101af81610189565b92915050565b6000602082840312156101cb576101ca61017a565b5b60006101d9848285016101a0565b91505092915050565b600073ffffffffffffffffffffffffffffffffffffffff82169050919050565b6000819050919050565b600061022761022261021d846101e2565b610202565b6101e2565b9050919050565b60006102398261020c565b9050919050565b600061024b8261022e565b9050919050565b61025b81610240565b82525050565b60006020820190506102766000830184610252565b9291505056fe60806040523480156200001157600080fd5b5060004690507f8b73c3c69bb8fe3d512ecc4cf759cc79239f7b179b0ffacaa9a75d522b39400f6040518060400160405280600781526020017f444959204c507300000000000000000000000000000000000000000000000000815250805190602001206040518060400160405280600181526020017f3100000000000000000000000000000000000000000000000000000000000000815250805190602001208330604051602001620000ca95949392919062000168565b6040516020818303038152906040528051906020012060038190555050620001c5565b6000819050919050565b6200010281620000ed565b82525050565b6000819050919050565b6200011d8162000108565b82525050565b600073ffffffffffffffffffffffffffffffffffffffff82169050919050565b6000620001508262000123565b9050919050565b620001628162000143565b82525050565b600060a0820190506200017f6000830188620000f7565b6200018e6020830187620000f7565b6200019d6040830186620000f7565b620001ac606083018562000112565b620001bb608083018462000157565b9695505050505050565b6114b380620001d56000396000f3fe608060405234801561001057600080fd5b50600436106100ea5760003560e01c80634e6ec2471161008c57806395d89b411161006657806395d89b4114610261578063a9059cbb1461027f578063d505accf146102af578063dd62ed3e146102cb576100ea565b80634e6ec247146101e557806370a08231146102015780637ecebe0014610231576100ea565b806323b872dd116100c857806323b872dd1461015b57806330adf81f1461018b578063313ce567146101a95780633644e515146101c7576100ea565b806306fdde03146100ef578063095ea7b31461010d57806318160ddd1461013d575b600080fd5b6100f76102fb565b6040516101049190610ce8565b60405180910390f35b61012760048036038101906101229190610da3565b610334565b6040516101349190610dfe565b60405180910390f35b61014561034b565b6040516101529190610e28565b60405180910390f35b61017560048036038101906101709190610e43565b610351565b6040516101829190610dfe565b60405180910390f35b610193610505565b6040516101a09190610eaf565b60405180910390f35b6101b161052c565b6040516101be9190610ee6565b60405180910390f35b6101cf610531565b6040516101dc9190610eaf565b60405180910390f35b6101ff60048036038101906101fa9190610da3565b610537565b005b61021b60048036038101906102169190610f01565b610651565b6040516102289190610e28565b60405180910390f35b61024b60048036038101906102469190610f01565b610669565b6040516102589190610e28565b60405180910390f35b610269610681565b6040516102769190610ce8565b60405180910390f35b61029960048036038101906102949190610da3565b6106ba565b6040516102a69190610dfe565b60405180910390f35b6102c960048036038101906102c49190610f86565b6106d1565b005b6102e560048036038101906102e09190611028565b6108f9565b6040516102f29190610e28565b60405180910390f35b6040518060400160405280600781526020017f444959204c50730000000000000000000000000000000000000000000000000081525081565b600061034133848461091e565b6001905092915050565b60005481565b600081600260008673ffffffffffffffffffffffffffffffffffffffff1673ffffffffffffffffffffffffffffffffffffffff16815260200190815260200160002060003373ffffffffffffffffffffffffffffffffffffffff1673ffffffffffffffffffffffffffffffffffffffff16815260200190815260200160002054106104f95761046582600260008773ffffffffffffffffffffffffffffffffffffffff1673ffffffffffffffffffffffffffffffffffffffff16815260200190815260200160002060003373ffffffffffffffffffffffffffffffffffffffff1673ffffffffffffffffffffffffffffffffffffffff16815260200190815260200160002054610a0990919063ffffffff16565b600260008673ffffffffffffffffffffffffffffffffffffffff1673ffffffffffffffffffffffffffffffffffffffff16815260200190815260200160002060003373ffffffffffffffffffffffffffffffffffffffff1673ffffffffffffffffffffffffffffffffffffffff168152602001908152602001600020819055506104f0848484610a62565b600190506104fe565b600090505b9392505050565b7f6e71edae12b1b97f4d1f60370fef10105fa2faae0126114a169c64845d6126c960001b81565b601281565b60035481565b61054c81600054610bf690919063ffffffff16565b6000819055506105a481600160008573ffffffffffffffffffffffffffffffffffffffff1673ffffffffffffffffffffffffffffffffffffffff16815260200190815260200160002054610bf690919063ffffffff16565b600160008473ffffffffffffffffffffffffffffffffffffffff1673ffffffffffffffffffffffffffffffffffffffff168152602001908152602001600020819055508173ffffffffffffffffffffffffffffffffffffffff16600073ffffffffffffffffffffffffffffffffffffffff167fddf252ad1be2c89b69c2b068fc378daa952ba7f163c4a11628f55a4df523b3ef836040516106459190610e28565b60405180910390a35050565b60016020528060005260406000206000915090505481565b60046020528060005260406000206000915090505481565b6040518060400160405280600681526020017f4449592d4c50000000000000000000000000000000000000000000000000000081525081565b60006106c7338484610a62565b6001905092915050565b42841015610714576040517f08c379a000000000000000000000000000000000000000000000000000000000815260040161070b906110b4565b60405180910390fd5b60006003547f6e71edae12b1b97f4d1f60370fef10105fa2faae0126114a169c64845d6126c960001b898989600460008e73ffffffffffffffffffffffffffffffffffffffff1673ffffffffffffffffffffffffffffffffffffffff168152602001908152602001600020600081548092919061079090611103565b919050558a6040516020016107aa9695949392919061115a565b604051602081830303815290604052805190602001206040516020016107d1929190611233565b60405160208183030381529060405280519060200120905060006001828686866040516000815260200160405260405161080e949392919061126a565b6020604051602081039080840390855afa158015610830573d6000803e3d6000fd5b505050602060405103519050600073ffffffffffffffffffffffffffffffffffffffff168173ffffffffffffffffffffffffffffffffffffffff16141580156108a457508873ffffffffffffffffffffffffffffffffffffffff168173ffffffffffffffffffffffffffffffffffffffff16145b6108e3576040517f08c379a00000000000000000000000000000000000000000000000000000000081526004016108da906112fb565b60405180910390fd5b6108ee89898961091e565b505050505050505050565b6002602052816000526040600020602052806000526040600020600091509150505481565b80600260008573ffffffffffffffffffffffffffffffffffffffff1673ffffffffffffffffffffffffffffffffffffffff16815260200190815260200160002060008473ffffffffffffffffffffffffffffffffffffffff1673ffffffffffffffffffffffffffffffffffffffff168152602001908152602001600020819055508173ffffffffffffffffffffffffffffffffffffffff168373ffffffffffffffffffffffffffffffffffffffff167f8c5be1e5ebec7d5bd14f71427d1e84f3dd0314c0f7b2291e5b200ac8c7c3b925836040516109fc9190610e28565b60405180910390a3505050565b6000828284610a18919061131b565b9150811115610a5c576040517f08c379a0000000000000000000000000000000000000000000000000000000008152600401610a539061139b565b60405180910390fd5b92915050565b610ab481600160008673ffffffffffffffffffffffffffffffffffffffff1673ffffffffffffffffffffffffffffffffffffffff16815260200190815260200160002054610a0990919063ffffffff16565b600160008573ffffffffffffffffffffffffffffffffffffffff1673ffffffffffffffffffffffffffffffffffffffff16815260200190815260200160002081905550610b4981600160008573ffffffffffffffffffffffffffffffffffffffff1673ffffffffffffffffffffffffffffffffffffffff16815260200190815260200160002054610bf690919063ffffffff16565b600160008473ffffffffffffffffffffffffffffffffffffffff1673ffffffffffffffffffffffffffffffffffffffff168152602001908152602001600020819055508173ffffffffffffffffffffffffffffffffffffffff168373ffffffffffffffffffffffffffffffffffffffff167fddf252ad1be2c89b69c2b068fc378daa952ba7f163c4a11628f55a4df523b3ef83604051610be99190610e28565b60405180910390a3505050565b6000828284610c0591906113bb565b9150811015610c49576040517f08c379a0000000000000000000000000000000000000000000000000000000008152600401610c409061145d565b60405180910390fd5b92915050565b600081519050919050565b600082825260208201905092915050565b60005b83811015610c89578082015181840152602081019050610c6e565b83811115610c98576000848401525b50505050565b6000601f19601f8301169050919050565b6000610cba82610c4f565b610cc48185610c5a565b9350610cd4818560208601610c6b565b610cdd81610c9e565b840191505092915050565b60006020820190508181036000830152610d028184610caf565b905092915050565b600080fd5b600073ffffffffffffffffffffffffffffffffffffffff82169050919050565b6000610d3a82610d0f565b9050919050565b610d4a81610d2f565b8114610d5557600080fd5b50565b600081359050610d6781610d41565b92915050565b6000819050919050565b610d8081610d6d565b8114610d8b57600080fd5b50565b600081359050610d9d81610d77565b92915050565b60008060408385031215610dba57610db9610d0a565b5b6000610dc885828601610d58565b9250506020610dd985828601610d8e565b9150509250929050565b60008115159050919050565b610df881610de3565b82525050565b6000602082019050610e136000830184610def565b92915050565b610e2281610d6d565b82525050565b6000602082019050610e3d6000830184610e19565b92915050565b600080600060608486031215610e5c57610e5b610d0a565b5b6000610e6a86828701610d58565b9350506020610e7b86828701610d58565b9250506040610e8c86828701610d8e565b9150509250925092565b6000819050919050565b610ea981610e96565b82525050565b6000602082019050610ec46000830184610ea0565b92915050565b600060ff82169050919050565b610ee081610eca565b82525050565b6000602082019050610efb6000830184610ed7565b92915050565b600060208284031215610f1757610f16610d0a565b5b6000610f2584828501610d58565b91505092915050565b610f3781610eca565b8114610f4257600080fd5b50565b600081359050610f5481610f2e565b92915050565b610f6381610e96565b8114610f6e57600080fd5b50565b600081359050610f8081610f5a565b92915050565b600080600080600080600060e0888a031215610fa557610fa4610d0a565b5b6000610fb38a828b01610d58565b9750506020610fc48a828b01610d58565b9650506040610fd58a828b01610d8e565b9550506060610fe68a828b01610d8e565b9450506080610ff78a828b01610f45565b93505060a06110088a828b01610f71565b92505060c06110198a828b01610f71565b91505092959891949750929550565b6000806040838503121561103f5761103e610d0a565b5b600061104d85828601610d58565b925050602061105e85828601610d58565b9150509250929050565b7f4449593a20455850495245440000000000000000000000000000000000000000600082015250565b600061109e600c83610c5a565b91506110a982611068565b602082019050919050565b600060208201905081810360008301526110cd81611091565b9050919050565b7f4e487b7100000000000000000000000000000000000000000000000000000000600052601160045260246000fd5b600061110e82610d6d565b91507fffffffffffffffffffffffffffffffffffffffffffffffffffffffffffffffff82036111405761113f6110d4565b5b600182019050919050565b61115481610d2f565b82525050565b600060c08201905061116f6000830189610ea0565b61117c602083018861114b565b611189604083018761114b565b6111966060830186610e19565b6111a36080830185610e19565b6111b060a0830184610e19565b979650505050505050565b600081905092915050565b7f1901000000000000000000000000000000000000000000000000000000000000600082015250565b60006111fc6002836111bb565b9150611207826111c6565b600282019050919050565b6000819050919050565b61122d61122882610e96565b611212565b82525050565b600061123e826111ef565b915061124a828561121c565b60208201915061125a828461121c565b6020820191508190509392505050565b600060808201905061127f6000830187610ea0565b61128c6020830186610ed7565b6112996040830185610ea0565b6112a66060830184610ea0565b95945050505050565b7f50616e63616b653a20494e56414c49445f5349474e4154555245000000000000600082015250565b60006112e5601a83610c5a565b91506112f0826112af565b602082019050919050565b60006020820190508181036000830152611314816112d8565b9050919050565b600061132682610d6d565b915061133183610d6d565b925082821015611344576113436110d4565b5b828203905092915050565b7f64732d6d6174682d7375622d756e646572666c6f770000000000000000000000600082015250565b6000611385601583610c5a565b91506113908261134f565b602082019050919050565b600060208201905081810360008301526113b481611378565b9050919050565b60006113c682610d6d565b91506113d183610d6d565b9250827fffffffffffffffffffffffffffffffffffffffffffffffffffffffffffffffff03821115611406576114056110d4565b5b828201905092915050565b7f64732d6d6174682d6164642d6f766572666c6f77000000000000000000000000600082015250565b6000611447601483610c5a565b915061145282611411565b602082019050919050565b600060208201905081810360008301526114768161143a565b905091905056fea2646970667358221220b6b02db410c6e4fcebec94a362fededb80557eb4e27efbd7baed3a028310a0c464736f6c634300080d0033a264697066735822122061b3fa25eaeee0076101ed7b54977f301c1607b71ef700b56796089f7d5ec8ec64736f6c634300080d0033",
  "immutableReferences": {},
  "source": "// SPDX-License-Identifier: GPL-3.0\npragma solidity >0.7.0 <0.9.0;\n\nimport './DIYERC20.sol';\n\ncontract DIYERC20Factory {\n    DIYERC20[] public DIYERC20s;\n    event NewDIYERC();\n\n    function createERC() external {\n        DIYERC20s.push(new DIYERC20());\n        emit NewDIYERC();\n    }\n}\n",
  "sourcePath": "/Users/michaelzhou/Desktop/DIYSwap/DIYSwap/contracts/DIYERC20Factory.sol",
  "compiler": {
    "name": "solc",
    "version": "0.8.13+commit.abaa5c0e.Emscripten.clang"
  },
  "schemaVersion": "3.4.4",
  "updatedAt": "2022-04-13T13:53:53.554Z",
  "networkType": "ethereum",
  "devdoc": {
    "kind": "dev",
    "methods": {},
    "version": 1
  },
  "userdoc": {
    "kind": "user",
    "methods": {},
    "version": 1
  }
}