{
  "contractName": "DIYMaster",
  "abi": [
    {
      "inputs": [
        {
          "internalType": "uint256",
          "name": "_diyPerBlock",
          "type": "uint256"
        },
        {
          "internalType": "uint256",
          "name": "_startBlock",
          "type": "uint256"
        }
      ],
      "stateMutability": "nonpayable",
      "type": "constructor"
    },
    {
      "anonymous": false,
      "inputs": [
        {
          "indexed": true,
          "internalType": "address",
          "name": "user",
          "type": "address"
        },
        {
          "indexed": true,
          "internalType": "uint256",
          "name": "pid",
          "type": "uint256"
        },
        {
          "indexed": false,
          "internalType": "uint256",
          "name": "amount",
          "type": "uint256"
        }
      ],
      "name": "Deposit",
      "type": "event"
    },
    {
      "anonymous": false,
      "inputs": [
        {
          "indexed": true,
          "internalType": "address",
          "name": "user",
          "type": "address"
        },
        {
          "indexed": true,
          "internalType": "uint256",
          "name": "pid",
          "type": "uint256"
        },
        {
          "indexed": false,
          "internalType": "uint256",
          "name": "amount",
          "type": "uint256"
        }
      ],
      "name": "EmergencyWithdraw",
      "type": "event"
    },
    {
      "anonymous": false,
      "inputs": [
        {
          "indexed": true,
          "internalType": "address",
          "name": "previousOwner",
          "type": "address"
        },
        {
          "indexed": true,
          "internalType": "address",
          "name": "newOwner",
          "type": "address"
        }
      ],
      "name": "OwnershipTransferred",
      "type": "event"
    },
    {
      "anonymous": false,
      "inputs": [
        {
          "indexed": true,
          "internalType": "address",
          "name": "user",
          "type": "address"
        },
        {
          "indexed": true,
          "internalType": "uint256",
          "name": "pid",
          "type": "uint256"
        },
        {
          "indexed": false,
          "internalType": "uint256",
          "name": "amount",
          "type": "uint256"
        }
      ],
      "name": "Withdraw",
      "type": "event"
    },
    {
      "inputs": [],
      "name": "BONUS_MULTIPLIER",
      "outputs": [
        {
          "internalType": "uint256",
          "name": "",
          "type": "uint256"
        }
      ],
      "stateMutability": "view",
      "type": "function",
      "constant": true
    },
    {
      "inputs": [],
      "name": "devaddr",
      "outputs": [
        {
          "internalType": "address",
          "name": "",
          "type": "address"
        }
      ],
      "stateMutability": "view",
      "type": "function",
      "constant": true
    },
    {
      "inputs": [],
      "name": "diyPerBlock",
      "outputs": [
        {
          "internalType": "uint256",
          "name": "",
          "type": "uint256"
        }
      ],
      "stateMutability": "view",
      "type": "function",
      "constant": true
    },
    {
      "inputs": [],
      "name": "diyToken",
      "outputs": [
        {
          "internalType": "contract DIYToken",
          "name": "",
          "type": "address"
        }
      ],
      "stateMutability": "view",
      "type": "function",
      "constant": true
    },
    {
      "inputs": [],
      "name": "owner",
      "outputs": [
        {
          "internalType": "address",
          "name": "",
          "type": "address"
        }
      ],
      "stateMutability": "view",
      "type": "function",
      "constant": true
    },
    {
      "inputs": [
        {
          "internalType": "uint256",
          "name": "",
          "type": "uint256"
        }
      ],
      "name": "poolInfo",
      "outputs": [
        {
          "internalType": "contract IPancakeERC20",
          "name": "lpToken",
          "type": "address"
        },
        {
          "internalType": "uint256",
          "name": "allocPoint",
          "type": "uint256"
        },
        {
          "internalType": "uint256",
          "name": "lastRewardBlock",
          "type": "uint256"
        },
        {
          "internalType": "uint256",
          "name": "accDIYPerShare",
          "type": "uint256"
        }
      ],
      "stateMutability": "view",
      "type": "function",
      "constant": true
    },
    {
      "inputs": [],
      "name": "renounceOwnership",
      "outputs": [],
      "stateMutability": "nonpayable",
      "type": "function"
    },
    {
      "inputs": [],
      "name": "stakePool",
      "outputs": [
        {
          "internalType": "contract IBEP20",
          "name": "lpToken",
          "type": "address"
        },
        {
          "internalType": "uint256",
          "name": "allocPoint",
          "type": "uint256"
        },
        {
          "internalType": "uint256",
          "name": "lastRewardBlock",
          "type": "uint256"
        },
        {
          "internalType": "uint256",
          "name": "accDIYPerShare",
          "type": "uint256"
        }
      ],
      "stateMutability": "view",
      "type": "function",
      "constant": true
    },
    {
      "inputs": [],
      "name": "startBlock",
      "outputs": [
        {
          "internalType": "uint256",
          "name": "",
          "type": "uint256"
        }
      ],
      "stateMutability": "view",
      "type": "function",
      "constant": true
    },
    {
      "inputs": [],
      "name": "totalAllocPoint",
      "outputs": [
        {
          "internalType": "uint256",
          "name": "",
          "type": "uint256"
        }
      ],
      "stateMutability": "view",
      "type": "function",
      "constant": true
    },
    {
      "inputs": [
        {
          "internalType": "address",
          "name": "newOwner",
          "type": "address"
        }
      ],
      "name": "transferOwnership",
      "outputs": [],
      "stateMutability": "nonpayable",
      "type": "function"
    },
    {
      "inputs": [
        {
          "internalType": "uint256",
          "name": "",
          "type": "uint256"
        },
        {
          "internalType": "address",
          "name": "",
          "type": "address"
        }
      ],
      "name": "userInfo",
      "outputs": [
        {
          "internalType": "uint256",
          "name": "amount",
          "type": "uint256"
        },
        {
          "internalType": "uint256",
          "name": "rewardDebt",
          "type": "uint256"
        }
      ],
      "stateMutability": "view",
      "type": "function",
      "constant": true
    },
    {
      "inputs": [
        {
          "internalType": "uint256",
          "name": "multiplierNumber",
          "type": "uint256"
        }
      ],
      "name": "updateMultiplier",
      "outputs": [],
      "stateMutability": "nonpayable",
      "type": "function"
    },
    {
      "inputs": [],
      "name": "poolLength",
      "outputs": [
        {
          "internalType": "uint256",
          "name": "",
          "type": "uint256"
        }
      ],
      "stateMutability": "view",
      "type": "function",
      "constant": true
    },
    {
      "inputs": [
        {
          "internalType": "uint256",
          "name": "_allocPoint",
          "type": "uint256"
        },
        {
          "internalType": "contract IPancakeERC20",
          "name": "_lpToken",
          "type": "address"
        },
        {
          "internalType": "bool",
          "name": "_withUpdate",
          "type": "bool"
        }
      ],
      "name": "add",
      "outputs": [],
      "stateMutability": "nonpayable",
      "type": "function"
    },
    {
      "inputs": [
        {
          "internalType": "uint256",
          "name": "_pid",
          "type": "uint256"
        },
        {
          "internalType": "uint256",
          "name": "_allocPoint",
          "type": "uint256"
        },
        {
          "internalType": "bool",
          "name": "_withUpdate",
          "type": "bool"
        }
      ],
      "name": "set",
      "outputs": [],
      "stateMutability": "nonpayable",
      "type": "function"
    },
    {
      "inputs": [
        {
          "internalType": "uint256",
          "name": "_from",
          "type": "uint256"
        },
        {
          "internalType": "uint256",
          "name": "_to",
          "type": "uint256"
        }
      ],
      "name": "getMultiplier",
      "outputs": [
        {
          "internalType": "uint256",
          "name": "",
          "type": "uint256"
        }
      ],
      "stateMutability": "view",
      "type": "function",
      "constant": true
    },
    {
      "inputs": [
        {
          "internalType": "uint256",
          "name": "_pid",
          "type": "uint256"
        },
        {
          "internalType": "address",
          "name": "_user",
          "type": "address"
        }
      ],
      "name": "pendingDIY",
      "outputs": [
        {
          "internalType": "uint256",
          "name": "",
          "type": "uint256"
        }
      ],
      "stateMutability": "view",
      "type": "function",
      "constant": true
    },
    {
      "inputs": [],
      "name": "massUpdatePools",
      "outputs": [],
      "stateMutability": "nonpayable",
      "type": "function"
    },
    {
      "inputs": [
        {
          "internalType": "uint256",
          "name": "_pid",
          "type": "uint256"
        }
      ],
      "name": "updatePool",
      "outputs": [],
      "stateMutability": "nonpayable",
      "type": "function"
    },
    {
      "inputs": [
        {
          "internalType": "uint256",
          "name": "_pid",
          "type": "uint256"
        },
        {
          "internalType": "uint256",
          "name": "_amount",
          "type": "uint256"
        }
      ],
      "name": "deposit",
      "outputs": [],
      "stateMutability": "nonpayable",
      "type": "function"
    },
    {
      "inputs": [
        {
          "internalType": "uint256",
          "name": "_pid",
          "type": "uint256"
        },
        {
          "internalType": "uint256",
          "name": "_amount",
          "type": "uint256"
        }
      ],
      "name": "withdraw",
      "outputs": [],
      "stateMutability": "nonpayable",
      "type": "function"
    },
    {
      "inputs": [
        {
          "internalType": "uint256",
          "name": "_amount",
          "type": "uint256"
        }
      ],
      "name": "enterStaking",
      "outputs": [],
      "stateMutability": "nonpayable",
      "type": "function"
    },
    {
      "inputs": [
        {
          "internalType": "uint256",
          "name": "_amount",
          "type": "uint256"
        }
      ],
      "name": "leaveStaking",
      "outputs": [],
      "stateMutability": "nonpayable",
      "type": "function"
    },
    {
      "inputs": [
        {
          "internalType": "uint256",
          "name": "_pid",
          "type": "uint256"
        }
      ],
      "name": "emergencyWithdraw",
      "outputs": [],
      "stateMutability": "nonpayable",
      "type": "function"
    },
    {
      "inputs": [
        {
          "internalType": "address",
          "name": "_devaddr",
          "type": "address"
        }
      ],
      "name": "dev",
      "outputs": [],
      "stateMutability": "nonpayable",
      "type": "function"
    }
  ],
  "bytecode": "0x608060405260016004556000600b553480156200001b57600080fd5b506040516200712038038062007120833981810160405281019062000041919062000212565b600062000053620001bc60201b60201c565b9050806000806101000a81548173ffffffffffffffffffffffffffffffffffffffff021916908373ffffffffffffffffffffffffffffffffffffffff1602179055508073ffffffffffffffffffffffffffffffffffffffff16600073ffffffffffffffffffffffffffffffffffffffff167f8be0079c531659141344cd1fd0a4f28419497f9722a3daafe3b4186f6b6457e060405160405180910390a350604051620000ff90620001c4565b604051809103906000f0801580156200011c573d6000803e3d6000fd5b50600160006101000a81548173ffffffffffffffffffffffffffffffffffffffff021916908373ffffffffffffffffffffffffffffffffffffffff16021790555030600260006101000a81548173ffffffffffffffffffffffffffffffffffffffff021916908373ffffffffffffffffffffffffffffffffffffffff1602179055508160038190555080600c819055506000600b81905550505062000259565b600033905090565b613faf806200317183390190565b600080fd5b6000819050919050565b620001ec81620001d7565b8114620001f857600080fd5b50565b6000815190506200020c81620001e1565b92915050565b600080604083850312156200022c576200022b620001d2565b5b60006200023c85828601620001fb565b92505060206200024f85828601620001fb565b9150509250929050565b612f0880620002696000396000f3fe608060405234801561001057600080fd5b506004361061018e5760003560e01c806364482f79116100de57806393f1a40b11610097578063d49e77cd11610071578063d49e77cd14610439578063e2bbb15814610457578063f2fde38b14610473578063f8ea47561461048f5761018e565b806393f1a40b146103ba5780639ef02697146103eb578063ac8510cf146104095761018e565b806364482f791461030c578063715018a6146103285780638aa28550146103325780638d88a90e146103505780638da5cb5b1461036c5780638dbb1e3a1461038a5761018e565b806341441d3b1161014b57806351eb05a61161012557806351eb05a6146102ae5780635312ea8e146102ca5780635ffe6146146102e6578063630b5ba1146103025761018e565b806341441d3b14610258578063441a3e701461027457806348cd4cb1146102905761018e565b8063081e3eda146101935780631058d281146101b15780631526fe27146101cd57806317caf6f1146102005780631eaaa0451461021e5780633c8e22361461023a575b600080fd5b61019b6104b0565b6040516101a891906123da565b60405180910390f35b6101cb60048036038101906101c69190612426565b6104bd565b005b6101e760048036038101906101e29190612426565b6107e5565b6040516101f794939291906124d2565b60405180910390f35b610208610845565b60405161021591906123da565b60405180910390f35b6102386004803603810190610233919061259f565b61084b565b005b6102426109f9565b60405161024f91906123da565b60405180910390f35b610272600480360381019061026d9190612426565b6109ff565b005b61028e600480360381019061028991906125f2565b610cef565b005b610298610f86565b6040516102a591906123da565b60405180910390f35b6102c860048036038101906102c39190612426565b610f8c565b005b6102e460048036038101906102df9190612426565b6112a0565b005b61030060048036038101906102fb9190612426565b6113b9565b005b61030a611458565b005b61032660048036038101906103219190612632565b61148b565b005b6103306115c6565b005b61033a611719565b60405161034791906123da565b60405180910390f35b61036a600480360381019061036591906126b1565b61171f565b005b6103746117f3565b60405161038191906126ed565b60405180910390f35b6103a4600480360381019061039f91906125f2565b61181c565b6040516103b191906123da565b60405180910390f35b6103d460048036038101906103cf9190612708565b61184d565b6040516103e2929190612748565b60405180910390f35b6103f361187e565b6040516104009190612792565b60405180910390f35b610423600480360381019061041e9190612708565b6118a4565b60405161043091906123da565b60405180910390f35b610441611ac9565b60405161044e91906126ed565b60405180910390f35b610471600480360381019061046c91906125f2565b611aef565b005b61048d600480360381019061048891906126b1565b611d4e565b005b610497611def565b6040516104a794939291906127ce565b60405180910390f35b6000600580549050905090565b600060056000815481106104d4576104d3612813565b5b906000526020600020906004020190506000600a600080815260200190815260200160002060003373ffffffffffffffffffffffffffffffffffffffff1673ffffffffffffffffffffffffffffffffffffffff1681526020019081526020016000209050828160000154101561057f576040517f08c379a00000000000000000000000000000000000000000000000000000000081526004016105769061289f565b60405180910390fd5b6105896000610f8c565b60006105d382600101546105c564e8d4a510006105b787600301548760000154611e2d90919063ffffffff16565b611e9a90919063ffffffff16565b611ee490919063ffffffff16565b9050600081111561066e57600160009054906101000a900473ffffffffffffffffffffffffffffffffffffffff1673ffffffffffffffffffffffffffffffffffffffff166395c92b8733836040518363ffffffff1660e01b815260040161063b9291906128bf565b600060405180830381600087803b15801561065557600080fd5b505af1158015610669573d6000803e3d6000fd5b505050505b60008411156106c65761068e848360000154611ee490919063ffffffff16565b82600001819055506106c58360000160009054906101000a900473ffffffffffffffffffffffffffffffffffffffff163386611f3d565b5b6106f864e8d4a510006106ea85600301548560000154611e2d90919063ffffffff16565b611e9a90919063ffffffff16565b8260010181905550600160009054906101000a900473ffffffffffffffffffffffffffffffffffffffff1673ffffffffffffffffffffffffffffffffffffffff16639dc29fac33866040518363ffffffff1660e01b815260040161075d9291906128bf565b600060405180830381600087803b15801561077757600080fd5b505af115801561078b573d6000803e3d6000fd5b5050505060003373ffffffffffffffffffffffffffffffffffffffff167ff279e6a1f5e320cca91135676d9cb6e44ca8a08c0b88342bcdb1144f6511b568866040516107d791906123da565b60405180910390a350505050565b600581815481106107f557600080fd5b90600052602060002090600402016000915090508060000160009054906101000a900473ffffffffffffffffffffffffffffffffffffffff16908060010154908060020154908060030154905084565b600b5481565b610853612004565b73ffffffffffffffffffffffffffffffffffffffff1660008054906101000a900473ffffffffffffffffffffffffffffffffffffffff1673ffffffffffffffffffffffffffffffffffffffff16146108e0576040517f08c379a00000000000000000000000000000000000000000000000000000000081526004016108d790612934565b60405180910390fd5b80156108ef576108ee611458565b5b6000600c54431161090257600c54610904565b435b905061091b84600b5461200c90919063ffffffff16565b600b81905550600560405180608001604052808573ffffffffffffffffffffffffffffffffffffffff1681526020018681526020018381526020016000815250908060018154018082558091505060019003906000526020600020906004020160009091909190915060008201518160000160006101000a81548173ffffffffffffffffffffffffffffffffffffffff021916908373ffffffffffffffffffffffffffffffffffffffff16021790555060208201518160010155604082015181600201556060820151816003015550506109f3612065565b50505050565b60035481565b60006005600081548110610a1657610a15612813565b5b906000526020600020906004020190506000600a600080815260200190815260200160002060003373ffffffffffffffffffffffffffffffffffffffff1673ffffffffffffffffffffffffffffffffffffffff1681526020019081526020016000209050610a846000610f8c565b600081600001541115610b78576000610adb8260010154610acd64e8d4a51000610abf87600301548760000154611e2d90919063ffffffff16565b611e9a90919063ffffffff16565b611ee490919063ffffffff16565b90506000811115610b7657600160009054906101000a900473ffffffffffffffffffffffffffffffffffffffff1673ffffffffffffffffffffffffffffffffffffffff166395c92b8733836040518363ffffffff1660e01b8152600401610b439291906128bf565b600060405180830381600087803b158015610b5d57600080fd5b505af1158015610b71573d6000803e3d6000fd5b505050505b505b6000831115610bd157610bb18260000160009054906101000a900473ffffffffffffffffffffffffffffffffffffffff16333086612168565b610bc883826000015461200c90919063ffffffff16565b81600001819055505b610c0364e8d4a51000610bf584600301548460000154611e2d90919063ffffffff16565b611e9a90919063ffffffff16565b8160010181905550600160009054906101000a900473ffffffffffffffffffffffffffffffffffffffff1673ffffffffffffffffffffffffffffffffffffffff166340c10f1933856040518363ffffffff1660e01b8152600401610c689291906128bf565b600060405180830381600087803b158015610c8257600080fd5b505af1158015610c96573d6000803e3d6000fd5b5050505060003373ffffffffffffffffffffffffffffffffffffffff167f90890809c654f11d6e72a28fa60149770a0d11ec6c92319d6ceb2bb0a4ea1a1585604051610ce291906123da565b60405180910390a3505050565b600060058381548110610d0557610d04612813565b5b906000526020600020906004020190506000600a600085815260200190815260200160002060003373ffffffffffffffffffffffffffffffffffffffff1673ffffffffffffffffffffffffffffffffffffffff16815260200190815260200160002090508281600001541015610db0576040517f08c379a0000000000000000000000000000000000000000000000000000000008152600401610da79061289f565b60405180910390fd5b610db984610f8c565b6000610e038260010154610df564e8d4a51000610de787600301548760000154611e2d90919063ffffffff16565b611e9a90919063ffffffff16565b611ee490919063ffffffff16565b90506000811115610e9e57600160009054906101000a900473ffffffffffffffffffffffffffffffffffffffff1673ffffffffffffffffffffffffffffffffffffffff166395c92b8733836040518363ffffffff1660e01b8152600401610e6b9291906128bf565b600060405180830381600087803b158015610e8557600080fd5b505af1158015610e99573d6000803e3d6000fd5b505050505b6000841115610ef657610ebe848360000154611ee490919063ffffffff16565b8260000181905550610ef58360000160009054906101000a900473ffffffffffffffffffffffffffffffffffffffff163386611f3d565b5b610f2864e8d4a51000610f1a85600301548560000154611e2d90919063ffffffff16565b611e9a90919063ffffffff16565b8260010181905550843373ffffffffffffffffffffffffffffffffffffffff167ff279e6a1f5e320cca91135676d9cb6e44ca8a08c0b88342bcdb1144f6511b56886604051610f7791906123da565b60405180910390a35050505050565b600c5481565b600060058281548110610fa257610fa1612813565b5b9060005260206000209060040201905080600201544311610fc3575061129d565b60008160000160009054906101000a900473ffffffffffffffffffffffffffffffffffffffff1673ffffffffffffffffffffffffffffffffffffffff166370a08231306040518263ffffffff1660e01b815260040161102291906126ed565b602060405180830381865afa15801561103f573d6000803e3d6000fd5b505050506040513d601f19601f820116820180604052508101906110639190612969565b90506000810361107d57438260020181905550505061129d565b600061108d83600201544361181c565b905060006110d0600b546110c286600101546110b460035487611e2d90919063ffffffff16565b611e2d90919063ffffffff16565b611e9a90919063ffffffff16565b9050600160009054906101000a900473ffffffffffffffffffffffffffffffffffffffff1673ffffffffffffffffffffffffffffffffffffffff166340c10f19600260009054906101000a900473ffffffffffffffffffffffffffffffffffffffff16611147600a85611e9a90919063ffffffff16565b6040518363ffffffff1660e01b81526004016111649291906128bf565b600060405180830381600087803b15801561117e57600080fd5b505af1158015611192573d6000803e3d6000fd5b50505050600160009054906101000a900473ffffffffffffffffffffffffffffffffffffffff1673ffffffffffffffffffffffffffffffffffffffff166340c10f19600160009054906101000a900473ffffffffffffffffffffffffffffffffffffffff16836040518363ffffffff1660e01b81526004016112159291906128bf565b600060405180830381600087803b15801561122f57600080fd5b505af1158015611243573d6000803e3d6000fd5b505050506112876112748461126664e8d4a5100085611e2d90919063ffffffff16565b611e9a90919063ffffffff16565b856003015461200c90919063ffffffff16565b8460030181905550438460020181905550505050505b50565b6000600582815481106112b6576112b5612813565b5b906000526020600020906004020190506000600a600084815260200190815260200160002060003373ffffffffffffffffffffffffffffffffffffffff1673ffffffffffffffffffffffffffffffffffffffff168152602001908152602001600020905061134d8260000160009054906101000a900473ffffffffffffffffffffffffffffffffffffffff16338360000154611f3d565b823373ffffffffffffffffffffffffffffffffffffffff167fbb757047c2b5f3974fe26b7c10f732e7bce710b0952a71082702781e62ae0595836000015460405161139891906123da565b60405180910390a36000816000018190555060008160010181905550505050565b6113c1612004565b73ffffffffffffffffffffffffffffffffffffffff1660008054906101000a900473ffffffffffffffffffffffffffffffffffffffff1673ffffffffffffffffffffffffffffffffffffffff161461144e576040517f08c379a000000000000000000000000000000000000000000000000000000000815260040161144590612934565b60405180910390fd5b8060048190555050565b6000600580549050905060005b818110156114875761147681610f8c565b80611480906129c5565b9050611465565b5050565b611493612004565b73ffffffffffffffffffffffffffffffffffffffff1660008054906101000a900473ffffffffffffffffffffffffffffffffffffffff1673ffffffffffffffffffffffffffffffffffffffff1614611520576040517f08c379a000000000000000000000000000000000000000000000000000000000815260040161151790612934565b60405180910390fd5b801561152f5761152e611458565b5b60006005848154811061154557611544612813565b5b9060005260206000209060040201600101549050826005858154811061156e5761156d612813565b5b9060005260206000209060040201600101819055508281146115c0576115b1836115a383600b54611ee490919063ffffffff16565b61200c90919063ffffffff16565b600b819055506115bf612065565b5b50505050565b6115ce612004565b73ffffffffffffffffffffffffffffffffffffffff1660008054906101000a900473ffffffffffffffffffffffffffffffffffffffff1673ffffffffffffffffffffffffffffffffffffffff161461165b576040517f08c379a000000000000000000000000000000000000000000000000000000000815260040161165290612934565b60405180910390fd5b600073ffffffffffffffffffffffffffffffffffffffff1660008054906101000a900473ffffffffffffffffffffffffffffffffffffffff1673ffffffffffffffffffffffffffffffffffffffff167f8be0079c531659141344cd1fd0a4f28419497f9722a3daafe3b4186f6b6457e060405160405180910390a360008060006101000a81548173ffffffffffffffffffffffffffffffffffffffff021916908373ffffffffffffffffffffffffffffffffffffffff160217905550565b60045481565b600260009054906101000a900473ffffffffffffffffffffffffffffffffffffffff1673ffffffffffffffffffffffffffffffffffffffff163373ffffffffffffffffffffffffffffffffffffffff16146117af576040517f08c379a00000000000000000000000000000000000000000000000000000000081526004016117a690612a59565b60405180910390fd5b80600260006101000a81548173ffffffffffffffffffffffffffffffffffffffff021916908373ffffffffffffffffffffffffffffffffffffffff16021790555050565b60008060009054906101000a900473ffffffffffffffffffffffffffffffffffffffff16905090565b60006118456004546118378585611ee490919063ffffffff16565b611e2d90919063ffffffff16565b905092915050565b600a602052816000526040600020602052806000526040600020600091509150508060000154908060010154905082565b600160009054906101000a900473ffffffffffffffffffffffffffffffffffffffff1681565b600080600584815481106118bb576118ba612813565b5b906000526020600020906004020190506000600a600086815260200190815260200160002060008573ffffffffffffffffffffffffffffffffffffffff1673ffffffffffffffffffffffffffffffffffffffff168152602001908152602001600020905060008260030154905060008360000160009054906101000a900473ffffffffffffffffffffffffffffffffffffffff1673ffffffffffffffffffffffffffffffffffffffff166370a08231306040518263ffffffff1660e01b815260040161198791906126ed565b602060405180830381865afa1580156119a4573d6000803e3d6000fd5b505050506040513d601f19601f820116820180604052508101906119c89190612969565b90508360020154431180156119de575060008114155b15611a795760006119f385600201544361181c565b90506000611a36600b54611a288860010154611a1a60035487611e2d90919063ffffffff16565b611e2d90919063ffffffff16565b611e9a90919063ffffffff16565b9050611a74611a6584611a5764e8d4a5100085611e2d90919063ffffffff16565b611e9a90919063ffffffff16565b8561200c90919063ffffffff16565b935050505b611abd8360010154611aaf64e8d4a51000611aa1868860000154611e2d90919063ffffffff16565b611e9a90919063ffffffff16565b611ee490919063ffffffff16565b94505050505092915050565b600260009054906101000a900473ffffffffffffffffffffffffffffffffffffffff1681565b600060058381548110611b0557611b04612813565b5b906000526020600020906004020190506000600a600085815260200190815260200160002060003373ffffffffffffffffffffffffffffffffffffffff1673ffffffffffffffffffffffffffffffffffffffff1681526020019081526020016000209050611b7284610f8c565b600081600001541115611c66576000611bc98260010154611bbb64e8d4a51000611bad87600301548760000154611e2d90919063ffffffff16565b611e9a90919063ffffffff16565b611ee490919063ffffffff16565b90506000811115611c6457600160009054906101000a900473ffffffffffffffffffffffffffffffffffffffff1673ffffffffffffffffffffffffffffffffffffffff166395c92b8733836040518363ffffffff1660e01b8152600401611c319291906128bf565b600060405180830381600087803b158015611c4b57600080fd5b505af1158015611c5f573d6000803e3d6000fd5b505050505b505b6000831115611cbf57611c9f8260000160009054906101000a900473ffffffffffffffffffffffffffffffffffffffff16333086612168565b611cb683826000015461200c90919063ffffffff16565b81600001819055505b611cf164e8d4a51000611ce384600301548460000154611e2d90919063ffffffff16565b611e9a90919063ffffffff16565b8160010181905550833373ffffffffffffffffffffffffffffffffffffffff167f90890809c654f11d6e72a28fa60149770a0d11ec6c92319d6ceb2bb0a4ea1a1585604051611d4091906123da565b60405180910390a350505050565b611d56612004565b73ffffffffffffffffffffffffffffffffffffffff1660008054906101000a900473ffffffffffffffffffffffffffffffffffffffff1673ffffffffffffffffffffffffffffffffffffffff1614611de3576040517f08c379a0000000000000000000000000000000000000000000000000000000008152600401611dda90612934565b60405180910390fd5b611dec81612232565b50565b60068060000160009054906101000a900473ffffffffffffffffffffffffffffffffffffffff16908060010154908060020154908060030154905084565b600080821480611e55575082828385611e469190612a79565b925082611e539190612b02565b145b611e94576040517f08c379a0000000000000000000000000000000000000000000000000000000008152600401611e8b90612b7f565b60405180910390fd5b92915050565b6000611edc83836040518060400160405280601a81526020017f536166654d6174683a206469766973696f6e206279207a65726f00000000000081525061235e565b905092915050565b6000828284611ef39190612b9f565b9150811115611f37576040517f08c379a0000000000000000000000000000000000000000000000000000000008152600401611f2e90612c1f565b60405180910390fd5b92915050565b8273ffffffffffffffffffffffffffffffffffffffff1663a9059cbb8383604051602401611f6c9291906128bf565b6040516020818303038152906040529060e01b6020820180517bffffffffffffffffffffffffffffffffffffffffffffffffffffffff8381831617835250505050604051611fba9190612cb9565b6000604051808303816000865af19150503d8060008114611ff7576040519150601f19603f3d011682016040523d82523d6000602084013e611ffc565b606091505b505050505050565b600033905090565b600082828461201b9190612cd0565b915081101561205f576040517f08c379a000000000000000000000000000000000000000000000000000000000815260040161205690612d72565b60405180910390fd5b92915050565b600060058054905090506000805b828110156120c6576120b36005828154811061209257612091612813565b5b9060005260206000209060040201600101548361200c90919063ffffffff16565b9150806120bf906129c5565b9050612073565b5060008114612164576120e3600382611e9a90919063ffffffff16565b905061213281612124600560008154811061210157612100612813565b5b906000526020600020906004020160010154600b54611ee490919063ffffffff16565b61200c90919063ffffffff16565b600b8190555080600560008154811061214e5761214d612813565b5b9060005260206000209060040201600101819055505b5050565b8373ffffffffffffffffffffffffffffffffffffffff166323b872dd84848460405160240161219993929190612d92565b6040516020818303038152906040529060e01b6020820180517bffffffffffffffffffffffffffffffffffffffffffffffffffffffff83818316178352505050506040516121e79190612cb9565b6000604051808303816000865af19150503d8060008114612224576040519150601f19603f3d011682016040523d82523d6000602084013e612229565b606091505b50505050505050565b600073ffffffffffffffffffffffffffffffffffffffff168173ffffffffffffffffffffffffffffffffffffffff16036122a1576040517f08c379a000000000000000000000000000000000000000000000000000000000815260040161229890612e3b565b60405180910390fd5b8073ffffffffffffffffffffffffffffffffffffffff1660008054906101000a900473ffffffffffffffffffffffffffffffffffffffff1673ffffffffffffffffffffffffffffffffffffffff167f8be0079c531659141344cd1fd0a4f28419497f9722a3daafe3b4186f6b6457e060405160405180910390a3806000806101000a81548173ffffffffffffffffffffffffffffffffffffffff021916908373ffffffffffffffffffffffffffffffffffffffff16021790555050565b600080831182906123a5576040517f08c379a000000000000000000000000000000000000000000000000000000000815260040161239c9190612eb0565b60405180910390fd5b50600083856123b49190612b02565b9050809150509392505050565b6000819050919050565b6123d4816123c1565b82525050565b60006020820190506123ef60008301846123cb565b92915050565b600080fd5b612403816123c1565b811461240e57600080fd5b50565b600081359050612420816123fa565b92915050565b60006020828403121561243c5761243b6123f5565b5b600061244a84828501612411565b91505092915050565b600073ffffffffffffffffffffffffffffffffffffffff82169050919050565b6000819050919050565b600061249861249361248e84612453565b612473565b612453565b9050919050565b60006124aa8261247d565b9050919050565b60006124bc8261249f565b9050919050565b6124cc816124b1565b82525050565b60006080820190506124e760008301876124c3565b6124f460208301866123cb565b61250160408301856123cb565b61250e60608301846123cb565b95945050505050565b600061252282612453565b9050919050565b600061253482612517565b9050919050565b61254481612529565b811461254f57600080fd5b50565b6000813590506125618161253b565b92915050565b60008115159050919050565b61257c81612567565b811461258757600080fd5b50565b60008135905061259981612573565b92915050565b6000806000606084860312156125b8576125b76123f5565b5b60006125c686828701612411565b93505060206125d786828701612552565b92505060406125e88682870161258a565b9150509250925092565b60008060408385031215612609576126086123f5565b5b600061261785828601612411565b925050602061262885828601612411565b9150509250929050565b60008060006060848603121561264b5761264a6123f5565b5b600061265986828701612411565b935050602061266a86828701612411565b925050604061267b8682870161258a565b9150509250925092565b61268e81612517565b811461269957600080fd5b50565b6000813590506126ab81612685565b92915050565b6000602082840312156126c7576126c66123f5565b5b60006126d58482850161269c565b91505092915050565b6126e781612517565b82525050565b600060208201905061270260008301846126de565b92915050565b6000806040838503121561271f5761271e6123f5565b5b600061272d85828601612411565b925050602061273e8582860161269c565b9150509250929050565b600060408201905061275d60008301856123cb565b61276a60208301846123cb565b9392505050565b600061277c8261249f565b9050919050565b61278c81612771565b82525050565b60006020820190506127a76000830184612783565b92915050565b60006127b88261249f565b9050919050565b6127c8816127ad565b82525050565b60006080820190506127e360008301876127bf565b6127f060208301866123cb565b6127fd60408301856123cb565b61280a60608301846123cb565b95945050505050565b7f4e487b7100000000000000000000000000000000000000000000000000000000600052603260045260246000fd5b600082825260208201905092915050565b7f77697468647261773a206e6f7420676f6f640000000000000000000000000000600082015250565b6000612889601283612842565b915061289482612853565b602082019050919050565b600060208201905081810360008301526128b88161287c565b9050919050565b60006040820190506128d460008301856126de565b6128e160208301846123cb565b9392505050565b7f4f776e61626c653a2063616c6c6572206973206e6f7420746865206f776e6572600082015250565b600061291e602083612842565b9150612929826128e8565b602082019050919050565b6000602082019050818103600083015261294d81612911565b9050919050565b600081519050612963816123fa565b92915050565b60006020828403121561297f5761297e6123f5565b5b600061298d84828501612954565b91505092915050565b7f4e487b7100000000000000000000000000000000000000000000000000000000600052601160045260246000fd5b60006129d0826123c1565b91507fffffffffffffffffffffffffffffffffffffffffffffffffffffffffffffffff8203612a0257612a01612996565b5b600182019050919050565b7f6465763a207775743f0000000000000000000000000000000000000000000000600082015250565b6000612a43600983612842565b9150612a4e82612a0d565b602082019050919050565b60006020820190508181036000830152612a7281612a36565b9050919050565b6000612a84826123c1565b9150612a8f836123c1565b9250817fffffffffffffffffffffffffffffffffffffffffffffffffffffffffffffffff0483118215151615612ac857612ac7612996565b5b828202905092915050565b7f4e487b7100000000000000000000000000000000000000000000000000000000600052601260045260246000fd5b6000612b0d826123c1565b9150612b18836123c1565b925082612b2857612b27612ad3565b5b828204905092915050565b7f64732d6d6174682d6d756c2d6f766572666c6f77000000000000000000000000600082015250565b6000612b69601483612842565b9150612b7482612b33565b602082019050919050565b60006020820190508181036000830152612b9881612b5c565b9050919050565b6000612baa826123c1565b9150612bb5836123c1565b925082821015612bc857612bc7612996565b5b828203905092915050565b7f64732d6d6174682d7375622d756e646572666c6f770000000000000000000000600082015250565b6000612c09601583612842565b9150612c1482612bd3565b602082019050919050565b60006020820190508181036000830152612c3881612bfc565b9050919050565b600081519050919050565b600081905092915050565b60005b83811015612c73578082015181840152602081019050612c58565b83811115612c82576000848401525b50505050565b6000612c9382612c3f565b612c9d8185612c4a565b9350612cad818560208601612c55565b80840191505092915050565b6000612cc58284612c88565b915081905092915050565b6000612cdb826123c1565b9150612ce6836123c1565b9250827fffffffffffffffffffffffffffffffffffffffffffffffffffffffffffffffff03821115612d1b57612d1a612996565b5b828201905092915050565b7f64732d6d6174682d6164642d6f766572666c6f77000000000000000000000000600082015250565b6000612d5c601483612842565b9150612d6782612d26565b602082019050919050565b60006020820190508181036000830152612d8b81612d4f565b9050919050565b6000606082019050612da760008301866126de565b612db460208301856126de565b612dc160408301846123cb565b949350505050565b7f4f776e61626c653a206e6577206f776e657220697320746865207a65726f206160008201527f6464726573730000000000000000000000000000000000000000000000000000602082015250565b6000612e25602683612842565b9150612e3082612dc9565b604082019050919050565b60006020820190508181036000830152612e5481612e18565b9050919050565b600081519050919050565b6000601f19601f8301169050919050565b6000612e8282612e5b565b612e8c8185612842565b9350612e9c818560208601612c55565b612ea581612e66565b840191505092915050565b60006020820190508181036000830152612eca8184612e77565b90509291505056fea26469706673582212205eeaecb12d6ab2548f2e6c4a5800e9d72b7fa50a9a75866f0eec9ef5115b985c64736f6c634300080d003360806040523480156200001157600080fd5b506000620000246200019d60201b60201c565b9050806000806101000a81548173ffffffffffffffffffffffffffffffffffffffff021916908373ffffffffffffffffffffffffffffffffffffffff1602179055508073ffffffffffffffffffffffffffffffffffffffff16600073ffffffffffffffffffffffffffffffffffffffff167f8be0079c531659141344cd1fd0a4f28419497f9722a3daafe3b4186f6b6457e060405160405180910390a35060004690507f8b73c3c69bb8fe3d512ecc4cf759cc79239f7b179b0ffacaa9a75d522b39400f6040518060400160405280600981526020017f44495920546f6b656e0000000000000000000000000000000000000000000000815250805190602001206040518060400160405280600181526020017f31000000000000000000000000000000000000000000000000000000000000008152508051906020012083306040516020016200017a95949392919062000220565b60405160208183030381529060405280519060200120600481905550506200027d565b600033905090565b6000819050919050565b620001ba81620001a5565b82525050565b6000819050919050565b620001d581620001c0565b82525050565b600073ffffffffffffffffffffffffffffffffffffffff82169050919050565b60006200020882620001db565b9050919050565b6200021a81620001fb565b82525050565b600060a082019050620002376000830188620001af565b620002466020830187620001af565b620002556040830186620001af565b620002646060830185620001ca565b6200027360808301846200020f565b9695505050505050565b613d22806200028d6000396000f3fe608060405234801561001057600080fd5b50600436106101f05760003560e01c80637ecebe001161010f578063a9059cbb116100a2578063dd62ed3e11610071578063dd62ed3e146105f5578063e7a324dc14610625578063f1127ed814610643578063f2fde38b14610674576101f0565b8063a9059cbb1461055d578063b4b5ea571461058d578063c3cda520146105bd578063d505accf146105d9576101f0565b806395d89b41116100de57806395d89b41146104c35780639dc29fac146104e1578063a0712d68146104fd578063a457c2d71461052d576101f0565b80637ecebe001461043b578063893d20e81461046b5780638da5cb5b1461048957806395c92b87146104a7576101f0565b806339509351116101875780636fcfff45116101565780636fcfff45146103a157806370a08231146103d1578063715018a614610401578063782d6fe11461040b576101f0565b8063395093511461030957806340c10f1914610339578063587cde1e146103555780635c19a95c14610385576101f0565b806323b872dd116101c357806323b872dd1461027f57806330adf81f146102af578063313ce567146102cd5780633644e515146102eb576101f0565b806306fdde03146101f5578063095ea7b31461021357806318160ddd1461024357806320606b7014610261575b600080fd5b6101fd610690565b60405161020a9190612b72565b60405180910390f35b61022d60048036038101906102289190612c2d565b6106c9565b60405161023a9190612c88565b60405180910390f35b61024b6106e7565b6040516102589190612cb2565b60405180910390f35b6102696106f1565b6040516102769190612ce6565b60405180910390f35b61029960048036038101906102949190612d01565b610715565b6040516102a69190612c88565b60405180910390f35b6102b76107d4565b6040516102c49190612ce6565b60405180910390f35b6102d56107fb565b6040516102e29190612d70565b60405180910390f35b6102f3610804565b6040516103009190612ce6565b60405180910390f35b610323600480360381019061031e9190612c2d565b61080a565b6040516103309190612c88565b60405180910390f35b610353600480360381019061034e9190612c2d565b6108bd565b005b61036f600480360381019061036a9190612d8b565b610936565b60405161037c9190612dc7565b60405180910390f35b61039f600480360381019061039a9190612d8b565b61099f565b005b6103bb60048036038101906103b69190612d8b565b6109ac565b6040516103c89190612e01565b60405180910390f35b6103eb60048036038101906103e69190612d8b565b6109cf565b6040516103f89190612cb2565b60405180910390f35b610409610a18565b005b61042560048036038101906104209190612c2d565b610b6b565b6040516104329190612cb2565b60405180910390f35b61045560048036038101906104509190612d8b565b610f40565b6040516104629190612cb2565b60405180910390f35b610473610f58565b6040516104809190612dc7565b60405180910390f35b610491610f67565b60405161049e9190612dc7565b60405180910390f35b6104c160048036038101906104bc9190612c2d565b610f90565b005b6104cb61105b565b6040516104d89190612b72565b60405180910390f35b6104fb60048036038101906104f69190612c2d565b611094565b005b61051760048036038101906105129190612e1c565b6111a2565b6040516105249190612c88565b60405180910390f35b61054760048036038101906105429190612c2d565b611253565b6040516105549190612c88565b60405180910390f35b61057760048036038101906105729190612c2d565b611306565b6040516105849190612c88565b60405180910390f35b6105a760048036038101906105a29190612d8b565b611324565b6040516105b49190612cb2565b60405180910390f35b6105d760048036038101906105d29190612ea1565b611403565b005b6105f360048036038101906105ee9190612f2e565b6116c5565b005b61060f600480360381019061060a9190612fd0565b6118ed565b60405161061c9190612cb2565b60405180910390f35b61062d611974565b60405161063a9190612ce6565b60405180910390f35b61065d6004803603810190610658919061303c565b611998565b60405161066b92919061307c565b60405180910390f35b61068e60048036038101906106899190612d8b565b6119d9565b005b6040518060400160405280600981526020017f44495920546f6b656e000000000000000000000000000000000000000000000081525081565b60006106dd6106d6611a7a565b8484611a82565b6001905092915050565b6000600354905090565b7f8cad95687ba82c2ce50e74f7b754645e5117c3a5bec8151c0726d5857980a86681565b6000610722848484611c4b565b6107c98461072e611a7a565b6107c485600260008a73ffffffffffffffffffffffffffffffffffffffff1673ffffffffffffffffffffffffffffffffffffffff168152602001908152602001600020600061077b611a7a565b73ffffffffffffffffffffffffffffffffffffffff1673ffffffffffffffffffffffffffffffffffffffff16815260200190815260200160002054611ebd90919063ffffffff16565b611a82565b600190509392505050565b7f6e71edae12b1b97f4d1f60370fef10105fa2faae0126114a169c64845d6126c960001b81565b60006012905090565b60045481565b60006108b3610817611a7a565b846108ae8560026000610828611a7a565b73ffffffffffffffffffffffffffffffffffffffff1673ffffffffffffffffffffffffffffffffffffffff16815260200190815260200160002060008973ffffffffffffffffffffffffffffffffffffffff1673ffffffffffffffffffffffffffffffffffffffff16815260200190815260200160002054611f1690919063ffffffff16565b611a82565b6001905092915050565b6108c78282611f6f565b6109326000600660008573ffffffffffffffffffffffffffffffffffffffff1673ffffffffffffffffffffffffffffffffffffffff16815260200190815260200160002060009054906101000a900473ffffffffffffffffffffffffffffffffffffffff16836120f8565b5050565b6000600660008373ffffffffffffffffffffffffffffffffffffffff1673ffffffffffffffffffffffffffffffffffffffff16815260200190815260200160002060009054906101000a900473ffffffffffffffffffffffffffffffffffffffff169050919050565b6109a933826123a7565b50565b60086020528060005260406000206000915054906101000a900463ffffffff1681565b6000600160008373ffffffffffffffffffffffffffffffffffffffff1673ffffffffffffffffffffffffffffffffffffffff168152602001908152602001600020549050919050565b610a20611a7a565b73ffffffffffffffffffffffffffffffffffffffff1660008054906101000a900473ffffffffffffffffffffffffffffffffffffffff1673ffffffffffffffffffffffffffffffffffffffff1614610aad576040517f08c379a0000000000000000000000000000000000000000000000000000000008152600401610aa4906130f1565b60405180910390fd5b600073ffffffffffffffffffffffffffffffffffffffff1660008054906101000a900473ffffffffffffffffffffffffffffffffffffffff1673ffffffffffffffffffffffffffffffffffffffff167f8be0079c531659141344cd1fd0a4f28419497f9722a3daafe3b4186f6b6457e060405160405180910390a360008060006101000a81548173ffffffffffffffffffffffffffffffffffffffff021916908373ffffffffffffffffffffffffffffffffffffffff160217905550565b6000438210610baf576040517f08c379a0000000000000000000000000000000000000000000000000000000008152600401610ba690613183565b60405180910390fd5b6000600860008573ffffffffffffffffffffffffffffffffffffffff1673ffffffffffffffffffffffffffffffffffffffff16815260200190815260200160002060009054906101000a900463ffffffff16905060008163ffffffff1603610c1b576000915050610f3a565b82600760008673ffffffffffffffffffffffffffffffffffffffff1673ffffffffffffffffffffffffffffffffffffffff1681526020019081526020016000206000600184610c6a91906131d2565b63ffffffff1663ffffffff16815260200190815260200160002060000160009054906101000a900463ffffffff1663ffffffff1611610d1757600760008573ffffffffffffffffffffffffffffffffffffffff1673ffffffffffffffffffffffffffffffffffffffff1681526020019081526020016000206000600183610cf191906131d2565b63ffffffff1663ffffffff16815260200190815260200160002060010154915050610f3a565b82600760008673ffffffffffffffffffffffffffffffffffffffff1673ffffffffffffffffffffffffffffffffffffffff16815260200190815260200160002060008063ffffffff16815260200190815260200160002060000160009054906101000a900463ffffffff1663ffffffff161115610d98576000915050610f3a565b600080600183610da891906131d2565b90505b8163ffffffff168163ffffffff161115610ed457600060028383610dcf91906131d2565b610dd99190613235565b82610de491906131d2565b90506000600760008973ffffffffffffffffffffffffffffffffffffffff1673ffffffffffffffffffffffffffffffffffffffff16815260200190815260200160002060008363ffffffff1663ffffffff1681526020019081526020016000206040518060400160405290816000820160009054906101000a900463ffffffff1663ffffffff1663ffffffff168152602001600182015481525050905086816000015163ffffffff1603610ea357806020015195505050505050610f3a565b86816000015163ffffffff161015610ebd57819350610ecd565b600182610eca91906131d2565b92505b5050610dab565b600760008773ffffffffffffffffffffffffffffffffffffffff1673ffffffffffffffffffffffffffffffffffffffff16815260200190815260200160002060008363ffffffff1663ffffffff1681526020019081526020016000206001015493505050505b92915050565b60056020528060005260406000206000915090505481565b6000610f62610f67565b905090565b60008060009054906101000a900473ffffffffffffffffffffffffffffffffffffffff16905090565b610f98611a7a565b73ffffffffffffffffffffffffffffffffffffffff1660008054906101000a900473ffffffffffffffffffffffffffffffffffffffff1673ffffffffffffffffffffffffffffffffffffffff1614611025576040517f08c379a000000000000000000000000000000000000000000000000000000000815260040161101c906130f1565b60405180910390fd5b6000611030336109cf565b90508082111561104a576110448382611306565b50611056565b6110548383611306565b505b505050565b6040518060400160405280600481526020017f444959540000000000000000000000000000000000000000000000000000000081525081565b61109c611a7a565b73ffffffffffffffffffffffffffffffffffffffff1660008054906101000a900473ffffffffffffffffffffffffffffffffffffffff1673ffffffffffffffffffffffffffffffffffffffff1614611129576040517f08c379a0000000000000000000000000000000000000000000000000000000008152600401611120906130f1565b60405180910390fd5b6111338282612518565b61119e600660008473ffffffffffffffffffffffffffffffffffffffff1673ffffffffffffffffffffffffffffffffffffffff16815260200190815260200160002060009054906101000a900473ffffffffffffffffffffffffffffffffffffffff166000836120f8565b5050565b60006111ac611a7a565b73ffffffffffffffffffffffffffffffffffffffff1660008054906101000a900473ffffffffffffffffffffffffffffffffffffffff1673ffffffffffffffffffffffffffffffffffffffff1614611239576040517f08c379a0000000000000000000000000000000000000000000000000000000008152600401611230906130f1565b60405180910390fd5b61124a611244611a7a565b83611f6f565b60019050919050565b60006112fc611260611a7a565b846112f78560026000611271611a7a565b73ffffffffffffffffffffffffffffffffffffffff1673ffffffffffffffffffffffffffffffffffffffff16815260200190815260200160002060008973ffffffffffffffffffffffffffffffffffffffff1673ffffffffffffffffffffffffffffffffffffffff16815260200190815260200160002054611ebd90919063ffffffff16565b611a82565b6001905092915050565b600061131a611313611a7a565b8484611c4b565b6001905092915050565b600080600860008473ffffffffffffffffffffffffffffffffffffffff1673ffffffffffffffffffffffffffffffffffffffff16815260200190815260200160002060009054906101000a900463ffffffff16905060008163ffffffff161161138e5760006113fb565b600760008473ffffffffffffffffffffffffffffffffffffffff1673ffffffffffffffffffffffffffffffffffffffff16815260200190815260200160002060006001836113dc91906131d2565b63ffffffff1663ffffffff168152602001908152602001600020600101545b915050919050565b60007f8cad95687ba82c2ce50e74f7b754645e5117c3a5bec8151c0726d5857980a8666040518060400160405280600981526020017f44495920546f6b656e00000000000000000000000000000000000000000000008152508051906020012061146b6126a1565b3060405160200161147f9493929190613266565b60405160208183030381529060405280519060200120905060007fe48329057bfd03d55e49b547132e39cffd9c1820ad7b9d4c5307691425d15adf8888886040516020016114d094939291906132ab565b604051602081830303815290604052805190602001209050600082826040516020016114fd929190613368565b60405160208183030381529060405280519060200120905060006001828888886040516000815260200160405260405161153a949392919061339f565b6020604051602081039080840390855afa15801561155c573d6000803e3d6000fd5b505050602060405103519050600073ffffffffffffffffffffffffffffffffffffffff168173ffffffffffffffffffffffffffffffffffffffff16036115d7576040517f08c379a00000000000000000000000000000000000000000000000000000000081526004016115ce90613456565b60405180910390fd5b600560008273ffffffffffffffffffffffffffffffffffffffff1673ffffffffffffffffffffffffffffffffffffffff168152602001908152602001600020600081548092919061162790613476565b91905055891461166c576040517f08c379a000000000000000000000000000000000000000000000000000000000815260040161166390613530565b60405180910390fd5b874211156116af576040517f08c379a00000000000000000000000000000000000000000000000000000000081526004016116a6906135c2565b60405180910390fd5b6116b9818b6123a7565b50505050505050505050565b42841015611708576040517f08c379a00000000000000000000000000000000000000000000000000000000081526004016116ff9061362e565b60405180910390fd5b60006004547f6e71edae12b1b97f4d1f60370fef10105fa2faae0126114a169c64845d6126c960001b898989600560008e73ffffffffffffffffffffffffffffffffffffffff1673ffffffffffffffffffffffffffffffffffffffff168152602001908152602001600020600081548092919061178490613476565b919050558a60405160200161179e9695949392919061364e565b604051602081830303815290604052805190602001206040516020016117c5929190613368565b604051602081830303815290604052805190602001209050600060018286868660405160008152602001604052604051611802949392919061339f565b6020604051602081039080840390855afa158015611824573d6000803e3d6000fd5b505050602060405103519050600073ffffffffffffffffffffffffffffffffffffffff168173ffffffffffffffffffffffffffffffffffffffff161415801561189857508873ffffffffffffffffffffffffffffffffffffffff168173ffffffffffffffffffffffffffffffffffffffff16145b6118d7576040517f08c379a00000000000000000000000000000000000000000000000000000000081526004016118ce906136fb565b60405180910390fd5b6118e2898989611a82565b505050505050505050565b6000600260008473ffffffffffffffffffffffffffffffffffffffff1673ffffffffffffffffffffffffffffffffffffffff16815260200190815260200160002060008373ffffffffffffffffffffffffffffffffffffffff1673ffffffffffffffffffffffffffffffffffffffff16815260200190815260200160002054905092915050565b7fe48329057bfd03d55e49b547132e39cffd9c1820ad7b9d4c5307691425d15adf81565b6007602052816000526040600020602052806000526040600020600091509150508060000160009054906101000a900463ffffffff16908060010154905082565b6119e1611a7a565b73ffffffffffffffffffffffffffffffffffffffff1660008054906101000a900473ffffffffffffffffffffffffffffffffffffffff1673ffffffffffffffffffffffffffffffffffffffff1614611a6e576040517f08c379a0000000000000000000000000000000000000000000000000000000008152600401611a65906130f1565b60405180910390fd5b611a77816126ae565b50565b600033905090565b600073ffffffffffffffffffffffffffffffffffffffff168373ffffffffffffffffffffffffffffffffffffffff1603611af1576040517f08c379a0000000000000000000000000000000000000000000000000000000008152600401611ae89061378d565b60405180910390fd5b600073ffffffffffffffffffffffffffffffffffffffff168273ffffffffffffffffffffffffffffffffffffffff1603611b60576040517f08c379a0000000000000000000000000000000000000000000000000000000008152600401611b579061381f565b60405180910390fd5b80600260008573ffffffffffffffffffffffffffffffffffffffff1673ffffffffffffffffffffffffffffffffffffffff16815260200190815260200160002060008473ffffffffffffffffffffffffffffffffffffffff1673ffffffffffffffffffffffffffffffffffffffff168152602001908152602001600020819055508173ffffffffffffffffffffffffffffffffffffffff168373ffffffffffffffffffffffffffffffffffffffff167f8c5be1e5ebec7d5bd14f71427d1e84f3dd0314c0f7b2291e5b200ac8c7c3b92583604051611c3e9190612cb2565b60405180910390a3505050565b600073ffffffffffffffffffffffffffffffffffffffff168373ffffffffffffffffffffffffffffffffffffffff1603611cba576040517f08c379a0000000000000000000000000000000000000000000000000000000008152600401611cb1906138b1565b60405180910390fd5b600073ffffffffffffffffffffffffffffffffffffffff168273ffffffffffffffffffffffffffffffffffffffff1603611d29576040517f08c379a0000000000000000000000000000000000000000000000000000000008152600401611d2090613943565b60405180910390fd5b611d7b81600160008673ffffffffffffffffffffffffffffffffffffffff1673ffffffffffffffffffffffffffffffffffffffff16815260200190815260200160002054611ebd90919063ffffffff16565b600160008573ffffffffffffffffffffffffffffffffffffffff1673ffffffffffffffffffffffffffffffffffffffff16815260200190815260200160002081905550611e1081600160008573ffffffffffffffffffffffffffffffffffffffff1673ffffffffffffffffffffffffffffffffffffffff16815260200190815260200160002054611f1690919063ffffffff16565b600160008473ffffffffffffffffffffffffffffffffffffffff1673ffffffffffffffffffffffffffffffffffffffff168152602001908152602001600020819055508173ffffffffffffffffffffffffffffffffffffffff168373ffffffffffffffffffffffffffffffffffffffff167fddf252ad1be2c89b69c2b068fc378daa952ba7f163c4a11628f55a4df523b3ef83604051611eb09190612cb2565b60405180910390a3505050565b6000828284611ecc9190613963565b9150811115611f10576040517f08c379a0000000000000000000000000000000000000000000000000000000008152600401611f07906139e3565b60405180910390fd5b92915050565b6000828284611f259190613a03565b9150811015611f69576040517f08c379a0000000000000000000000000000000000000000000000000000000008152600401611f6090613aa5565b60405180910390fd5b92915050565b600073ffffffffffffffffffffffffffffffffffffffff168273ffffffffffffffffffffffffffffffffffffffff1603611fde576040517f08c379a0000000000000000000000000000000000000000000000000000000008152600401611fd590613b11565b60405180910390fd5b611ff381600354611f1690919063ffffffff16565b60038190555061204b81600160008573ffffffffffffffffffffffffffffffffffffffff1673ffffffffffffffffffffffffffffffffffffffff16815260200190815260200160002054611f1690919063ffffffff16565b600160008473ffffffffffffffffffffffffffffffffffffffff1673ffffffffffffffffffffffffffffffffffffffff168152602001908152602001600020819055508173ffffffffffffffffffffffffffffffffffffffff16600073ffffffffffffffffffffffffffffffffffffffff167fddf252ad1be2c89b69c2b068fc378daa952ba7f163c4a11628f55a4df523b3ef836040516120ec9190612cb2565b60405180910390a35050565b8173ffffffffffffffffffffffffffffffffffffffff168373ffffffffffffffffffffffffffffffffffffffff16141580156121345750600081115b156123a257600073ffffffffffffffffffffffffffffffffffffffff168373ffffffffffffffffffffffffffffffffffffffff161461226d576000600860008573ffffffffffffffffffffffffffffffffffffffff1673ffffffffffffffffffffffffffffffffffffffff16815260200190815260200160002060009054906101000a900463ffffffff1690506000808263ffffffff16116121d7576000612244565b600760008673ffffffffffffffffffffffffffffffffffffffff1673ffffffffffffffffffffffffffffffffffffffff168152602001908152602001600020600060018461222591906131d2565b63ffffffff1663ffffffff168152602001908152602001600020600101545b9050600061225b8483611ebd90919063ffffffff16565b9050612269868484846127da565b5050505b600073ffffffffffffffffffffffffffffffffffffffff168273ffffffffffffffffffffffffffffffffffffffff16146123a1576000600860008473ffffffffffffffffffffffffffffffffffffffff1673ffffffffffffffffffffffffffffffffffffffff16815260200190815260200160002060009054906101000a900463ffffffff1690506000808263ffffffff161161230b576000612378565b600760008573ffffffffffffffffffffffffffffffffffffffff1673ffffffffffffffffffffffffffffffffffffffff168152602001908152602001600020600060018461235991906131d2565b63ffffffff1663ffffffff168152602001908152602001600020600101545b9050600061238f8483611f1690919063ffffffff16565b905061239d858484846127da565b5050505b5b505050565b6000600660008473ffffffffffffffffffffffffffffffffffffffff1673ffffffffffffffffffffffffffffffffffffffff16815260200190815260200160002060009054906101000a900473ffffffffffffffffffffffffffffffffffffffff1690506000612416846109cf565b905082600660008673ffffffffffffffffffffffffffffffffffffffff1673ffffffffffffffffffffffffffffffffffffffff16815260200190815260200160002060006101000a81548173ffffffffffffffffffffffffffffffffffffffff021916908373ffffffffffffffffffffffffffffffffffffffff1602179055508273ffffffffffffffffffffffffffffffffffffffff168273ffffffffffffffffffffffffffffffffffffffff168573ffffffffffffffffffffffffffffffffffffffff167f3134e8a2e6d97e929a7e54011ea5485d7d196dd5f0ba4d4ef95803e8e3fc257f60405160405180910390a46125128284836120f8565b50505050565b600073ffffffffffffffffffffffffffffffffffffffff168273ffffffffffffffffffffffffffffffffffffffff1603612587576040517f08c379a000000000000000000000000000000000000000000000000000000000815260040161257e90613ba3565b60405180910390fd5b6125d981600160008573ffffffffffffffffffffffffffffffffffffffff1673ffffffffffffffffffffffffffffffffffffffff16815260200190815260200160002054611ebd90919063ffffffff16565b600160008473ffffffffffffffffffffffffffffffffffffffff1673ffffffffffffffffffffffffffffffffffffffff1681526020019081526020016000208190555061263181600354611ebd90919063ffffffff16565b600381905550600073ffffffffffffffffffffffffffffffffffffffff168273ffffffffffffffffffffffffffffffffffffffff167fddf252ad1be2c89b69c2b068fc378daa952ba7f163c4a11628f55a4df523b3ef836040516126959190612cb2565b60405180910390a35050565b6000804690508091505090565b600073ffffffffffffffffffffffffffffffffffffffff168173ffffffffffffffffffffffffffffffffffffffff160361271d576040517f08c379a000000000000000000000000000000000000000000000000000000000815260040161271490613c35565b60405180910390fd5b8073ffffffffffffffffffffffffffffffffffffffff1660008054906101000a900473ffffffffffffffffffffffffffffffffffffffff1673ffffffffffffffffffffffffffffffffffffffff167f8be0079c531659141344cd1fd0a4f28419497f9722a3daafe3b4186f6b6457e060405160405180910390a3806000806101000a81548173ffffffffffffffffffffffffffffffffffffffff021916908373ffffffffffffffffffffffffffffffffffffffff16021790555050565b60006127fe43604051806060016040528060348152602001613cb960349139612a83565b905060008463ffffffff1611801561289c57508063ffffffff16600760008773ffffffffffffffffffffffffffffffffffffffff1673ffffffffffffffffffffffffffffffffffffffff168152602001908152602001600020600060018761286691906131d2565b63ffffffff1663ffffffff16815260200190815260200160002060000160009054906101000a900463ffffffff1663ffffffff16145b156129165781600760008773ffffffffffffffffffffffffffffffffffffffff1673ffffffffffffffffffffffffffffffffffffffff16815260200190815260200160002060006001876128f091906131d2565b63ffffffff1663ffffffff16815260200190815260200160002060010181905550612a2c565b60405180604001604052808263ffffffff16815260200183815250600760008773ffffffffffffffffffffffffffffffffffffffff1673ffffffffffffffffffffffffffffffffffffffff16815260200190815260200160002060008663ffffffff1663ffffffff16815260200190815260200160002060008201518160000160006101000a81548163ffffffff021916908363ffffffff160217905550602082015181600101559050506001846129ce9190613c55565b600860008773ffffffffffffffffffffffffffffffffffffffff1673ffffffffffffffffffffffffffffffffffffffff16815260200190815260200160002060006101000a81548163ffffffff021916908363ffffffff1602179055505b8473ffffffffffffffffffffffffffffffffffffffff167fdec2bacdd2f05b59de34da9b523dff8be42e5e38e818c82fdb0bae774387a7248484604051612a74929190613c8f565b60405180910390a25050505050565b600064010000000083108290612acf576040517f08c379a0000000000000000000000000000000000000000000000000000000008152600401612ac69190612b72565b60405180910390fd5b5082905092915050565b600081519050919050565b600082825260208201905092915050565b60005b83811015612b13578082015181840152602081019050612af8565b83811115612b22576000848401525b50505050565b6000601f19601f8301169050919050565b6000612b4482612ad9565b612b4e8185612ae4565b9350612b5e818560208601612af5565b612b6781612b28565b840191505092915050565b60006020820190508181036000830152612b8c8184612b39565b905092915050565b600080fd5b600073ffffffffffffffffffffffffffffffffffffffff82169050919050565b6000612bc482612b99565b9050919050565b612bd481612bb9565b8114612bdf57600080fd5b50565b600081359050612bf181612bcb565b92915050565b6000819050919050565b612c0a81612bf7565b8114612c1557600080fd5b50565b600081359050612c2781612c01565b92915050565b60008060408385031215612c4457612c43612b94565b5b6000612c5285828601612be2565b9250506020612c6385828601612c18565b9150509250929050565b60008115159050919050565b612c8281612c6d565b82525050565b6000602082019050612c9d6000830184612c79565b92915050565b612cac81612bf7565b82525050565b6000602082019050612cc76000830184612ca3565b92915050565b6000819050919050565b612ce081612ccd565b82525050565b6000602082019050612cfb6000830184612cd7565b92915050565b600080600060608486031215612d1a57612d19612b94565b5b6000612d2886828701612be2565b9350506020612d3986828701612be2565b9250506040612d4a86828701612c18565b9150509250925092565b600060ff82169050919050565b612d6a81612d54565b82525050565b6000602082019050612d856000830184612d61565b92915050565b600060208284031215612da157612da0612b94565b5b6000612daf84828501612be2565b91505092915050565b612dc181612bb9565b82525050565b6000602082019050612ddc6000830184612db8565b92915050565b600063ffffffff82169050919050565b612dfb81612de2565b82525050565b6000602082019050612e166000830184612df2565b92915050565b600060208284031215612e3257612e31612b94565b5b6000612e4084828501612c18565b91505092915050565b612e5281612d54565b8114612e5d57600080fd5b50565b600081359050612e6f81612e49565b92915050565b612e7e81612ccd565b8114612e8957600080fd5b50565b600081359050612e9b81612e75565b92915050565b60008060008060008060c08789031215612ebe57612ebd612b94565b5b6000612ecc89828a01612be2565b9650506020612edd89828a01612c18565b9550506040612eee89828a01612c18565b9450506060612eff89828a01612e60565b9350506080612f1089828a01612e8c565b92505060a0612f2189828a01612e8c565b9150509295509295509295565b600080600080600080600060e0888a031215612f4d57612f4c612b94565b5b6000612f5b8a828b01612be2565b9750506020612f6c8a828b01612be2565b9650506040612f7d8a828b01612c18565b9550506060612f8e8a828b01612c18565b9450506080612f9f8a828b01612e60565b93505060a0612fb08a828b01612e8c565b92505060c0612fc18a828b01612e8c565b91505092959891949750929550565b60008060408385031215612fe757612fe6612b94565b5b6000612ff585828601612be2565b925050602061300685828601612be2565b9150509250929050565b61301981612de2565b811461302457600080fd5b50565b60008135905061303681613010565b92915050565b6000806040838503121561305357613052612b94565b5b600061306185828601612be2565b925050602061307285828601613027565b9150509250929050565b60006040820190506130916000830185612df2565b61309e6020830184612ca3565b9392505050565b7f4f776e61626c653a2063616c6c6572206973206e6f7420746865206f776e6572600082015250565b60006130db602083612ae4565b91506130e6826130a5565b602082019050919050565b6000602082019050818103600083015261310a816130ce565b9050919050565b7f43414b453a3a6765745072696f72566f7465733a206e6f74207965742064657460008201527f65726d696e656400000000000000000000000000000000000000000000000000602082015250565b600061316d602783612ae4565b915061317882613111565b604082019050919050565b6000602082019050818103600083015261319c81613160565b9050919050565b7f4e487b7100000000000000000000000000000000000000000000000000000000600052601160045260246000fd5b60006131dd82612de2565b91506131e883612de2565b9250828210156131fb576131fa6131a3565b5b828203905092915050565b7f4e487b7100000000000000000000000000000000000000000000000000000000600052601260045260246000fd5b600061324082612de2565b915061324b83612de2565b92508261325b5761325a613206565b5b828204905092915050565b600060808201905061327b6000830187612cd7565b6132886020830186612cd7565b6132956040830185612ca3565b6132a26060830184612db8565b95945050505050565b60006080820190506132c06000830187612cd7565b6132cd6020830186612db8565b6132da6040830185612ca3565b6132e76060830184612ca3565b95945050505050565b600081905092915050565b7f1901000000000000000000000000000000000000000000000000000000000000600082015250565b60006133316002836132f0565b915061333c826132fb565b600282019050919050565b6000819050919050565b61336261335d82612ccd565b613347565b82525050565b600061337382613324565b915061337f8285613351565b60208201915061338f8284613351565b6020820191508190509392505050565b60006080820190506133b46000830187612cd7565b6133c16020830186612d61565b6133ce6040830185612cd7565b6133db6060830184612cd7565b95945050505050565b7f43414b453a3a64656c656761746542795369673a20696e76616c69642073696760008201527f6e61747572650000000000000000000000000000000000000000000000000000602082015250565b6000613440602683612ae4565b915061344b826133e4565b604082019050919050565b6000602082019050818103600083015261346f81613433565b9050919050565b600061348182612bf7565b91507fffffffffffffffffffffffffffffffffffffffffffffffffffffffffffffffff82036134b3576134b26131a3565b5b600182019050919050565b7f43414b453a3a64656c656761746542795369673a20696e76616c6964206e6f6e60008201527f6365000000000000000000000000000000000000000000000000000000000000602082015250565b600061351a602283612ae4565b9150613525826134be565b604082019050919050565b600060208201905081810360008301526135498161350d565b9050919050565b7f43414b453a3a64656c656761746542795369673a207369676e6174757265206560008201527f7870697265640000000000000000000000000000000000000000000000000000602082015250565b60006135ac602683612ae4565b91506135b782613550565b604082019050919050565b600060208201905081810360008301526135db8161359f565b9050919050565b7f4449593a20455850495245440000000000000000000000000000000000000000600082015250565b6000613618600c83612ae4565b9150613623826135e2565b602082019050919050565b600060208201905081810360008301526136478161360b565b9050919050565b600060c0820190506136636000830189612cd7565b6136706020830188612db8565b61367d6040830187612db8565b61368a6060830186612ca3565b6136976080830185612ca3565b6136a460a0830184612ca3565b979650505050505050565b7f50616e63616b653a20494e56414c49445f5349474e4154555245000000000000600082015250565b60006136e5601a83612ae4565b91506136f0826136af565b602082019050919050565b60006020820190508181036000830152613714816136d8565b9050919050565b7f42455032303a20617070726f76652066726f6d20746865207a65726f2061646460008201527f7265737300000000000000000000000000000000000000000000000000000000602082015250565b6000613777602483612ae4565b91506137828261371b565b604082019050919050565b600060208201905081810360008301526137a68161376a565b9050919050565b7f42455032303a20617070726f766520746f20746865207a65726f20616464726560008201527f7373000000000000000000000000000000000000000000000000000000000000602082015250565b6000613809602283612ae4565b9150613814826137ad565b604082019050919050565b60006020820190508181036000830152613838816137fc565b9050919050565b7f42455032303a207472616e736665722066726f6d20746865207a65726f20616460008201527f6472657373000000000000000000000000000000000000000000000000000000602082015250565b600061389b602583612ae4565b91506138a68261383f565b604082019050919050565b600060208201905081810360008301526138ca8161388e565b9050919050565b7f42455032303a207472616e7366657220746f20746865207a65726f206164647260008201527f6573730000000000000000000000000000000000000000000000000000000000602082015250565b600061392d602383612ae4565b9150613938826138d1565b604082019050919050565b6000602082019050818103600083015261395c81613920565b9050919050565b600061396e82612bf7565b915061397983612bf7565b92508282101561398c5761398b6131a3565b5b828203905092915050565b7f64732d6d6174682d7375622d756e646572666c6f770000000000000000000000600082015250565b60006139cd601583612ae4565b91506139d882613997565b602082019050919050565b600060208201905081810360008301526139fc816139c0565b9050919050565b6000613a0e82612bf7565b9150613a1983612bf7565b9250827fffffffffffffffffffffffffffffffffffffffffffffffffffffffffffffffff03821115613a4e57613a4d6131a3565b5b828201905092915050565b7f64732d6d6174682d6164642d6f766572666c6f77000000000000000000000000600082015250565b6000613a8f601483612ae4565b9150613a9a82613a59565b602082019050919050565b60006020820190508181036000830152613abe81613a82565b9050919050565b7f42455032303a206d696e7420746f20746865207a65726f206164647265737300600082015250565b6000613afb601f83612ae4565b9150613b0682613ac5565b602082019050919050565b60006020820190508181036000830152613b2a81613aee565b9050919050565b7f42455032303a206275726e2066726f6d20746865207a65726f2061646472657360008201527f7300000000000000000000000000000000000000000000000000000000000000602082015250565b6000613b8d602183612ae4565b9150613b9882613b31565b604082019050919050565b60006020820190508181036000830152613bbc81613b80565b9050919050565b7f4f776e61626c653a206e6577206f776e657220697320746865207a65726f206160008201527f6464726573730000000000000000000000000000000000000000000000000000602082015250565b6000613c1f602683612ae4565b9150613c2a82613bc3565b604082019050919050565b60006020820190508181036000830152613c4e81613c12565b9050919050565b6000613c6082612de2565b9150613c6b83612de2565b92508263ffffffff03821115613c8457613c836131a3565b5b828201905092915050565b6000604082019050613ca46000830185612ca3565b613cb16020830184612ca3565b939250505056fe43414b453a3a5f7772697465436865636b706f696e743a20626c6f636b206e756d62657220657863656564732033322062697473a264697066735822122055601f202fd42834c879597848f0ce01dca57a2154d7c0cdbee6c2098745937a64736f6c634300080d0033",
  "immutableReferences": {},
  "source": "// SPDX-License-Identifier: GPL-3.0\npragma solidity >0.7.0 <0.9.0;\n\nimport './libraries/SafeMath.sol';\nimport './BEP20/IBEP20.sol';\nimport './BEP20/SafeBEP20.sol';\nimport './BEP20/Ownable.sol';\nimport \"./DIYToken.sol\";\nimport './interfaces/IPancakeERC20.sol';\nimport './libraries/TransferHelper.sol';\n\n// MasterChef is the master of Cake. He can make Cake and he is a fair guy.\n//\n// Note that it's ownable and the owner wields tremendous power. The ownership\n// will be transferred to a governance smart contract once CAKE is sufficiently\n// distributed and the community can show to govern itself.\n//\n// Have fun reading it. Hopefully it's bug-free. God bless.\ncontract DIYMaster is Ownable {\n    using SafeMath for uint256;\n    using SafeBEP20 for IBEP20;\n\n    // Info of each user.\n    struct UserInfo {\n        uint256 amount;     // How many LP tokens the user has provided.\n        uint256 rewardDebt; // Reward debt. See explanation below.\n        //\n        // We do some fancy math here. Basically, any point in time, the amount of CAKEs\n        // entitled to a user but is pending to be distributed is:\n        //\n        //   pending reward = (user.amount * pool.accCakePerShare) - user.rewardDebt\n        //\n        // Whenever a user deposits or withdraws LP tokens to a pool. Here's what happens:\n        //   1. The pool's `accCakePerShare` (and `lastRewardBlock`) gets updated.\n        //   2. User receives the pending reward sent to his/her address.\n        //   3. User's `amount` gets updated.\n        //   4. User's `rewardDebt` gets updated.\n    }\n\n    // Info of each pool.\n    struct PoolInfo {\n        IPancakeERC20 lpToken;           // Address of LP token contract.\n        uint256 allocPoint;       // How many allocation points assigned to this pool. CAKEs to distribute per block.\n        uint256 lastRewardBlock;  // Last block number that CAKEs distribution occurs.\n        uint256 accDIYPerShare; // Accumulated CAKEs per share, times 1e12. See below.\n    }\n\n    struct StakePool {\n        IBEP20 lpToken;           // Address of LP token contract.\n        uint256 allocPoint;       // How many allocation points assigned to this pool. CAKEs to distribute per block.\n        uint256 lastRewardBlock;  // Last block number that CAKEs distribution occurs.\n        uint256 accDIYPerShare; // Accumulated CAKEs per share, times 1e12. See below.\n    }\n\n    // The CAKE TOKEN!\n    DIYToken public diyToken;\n    // Dev address.\n    address public devaddr;\n    // CAKE tokens created per block.\n    uint256 public diyPerBlock;\n    // Bonus muliplier for early cake makers.\n    uint256 public BONUS_MULTIPLIER = 1;\n\n    // Info of each pool.\n    PoolInfo[] public poolInfo;\n    // Info of DIYT pool.\n    StakePool public stakePool;\n    // Info of each user that stakes LP tokens.\n    mapping (uint256 => mapping (address => UserInfo)) public userInfo;\n    // Total allocation points. Must be the sum of all allocation points in all pools.\n    uint256 public totalAllocPoint = 0;\n    // The block number when CAKE mining starts.\n    uint256 public startBlock;\n\n    event Deposit(address indexed user, uint256 indexed pid, uint256 amount);\n    event Withdraw(address indexed user, uint256 indexed pid, uint256 amount);\n    event EmergencyWithdraw(address indexed user, uint256 indexed pid, uint256 amount);\n\n    constructor(\n        uint256 _diyPerBlock,\n        uint256 _startBlock\n    ) {\n        diyToken = new DIYToken();\n        devaddr = address(this);\n        diyPerBlock = _diyPerBlock;\n        startBlock = _startBlock;\n        totalAllocPoint = 0;\n\n        // staking pool\n        // stakePool = StakePool({\n        //     lpToken: diyToken,\n        //     allocPoint: 1000,\n        //     lastRewardBlock: startBlock,\n        //     accDIYPerShare: 0\n        // });\n\n    }\n\n    function updateMultiplier(uint256 multiplierNumber) public onlyOwner {\n        BONUS_MULTIPLIER = multiplierNumber;\n    }\n\n    function poolLength() external view returns (uint256) {\n        return poolInfo.length;\n    }\n\n    // Add a new lp to the pool. Can only be called by the owner.\n    // XXX DO NOT add the same LP token more than once. Rewards will be messed up if you do.\n    function add(uint256 _allocPoint, IPancakeERC20 _lpToken, bool _withUpdate) public onlyOwner {\n        if (_withUpdate) {\n            massUpdatePools();\n        }\n        uint256 lastRewardBlock = block.number > startBlock ? block.number : startBlock;\n        totalAllocPoint = totalAllocPoint.add(_allocPoint);\n        poolInfo.push(PoolInfo({\n            lpToken: _lpToken,\n            allocPoint: _allocPoint,\n            lastRewardBlock: lastRewardBlock,\n            accDIYPerShare: 0\n        }));\n        updateStakingPool();\n    }\n\n    // Update the given pool's CAKE allocation point. Can only be called by the owner.\n    function set(uint256 _pid, uint256 _allocPoint, bool _withUpdate) public onlyOwner {\n        if (_withUpdate) {\n            massUpdatePools();\n        }\n        uint256 prevAllocPoint = poolInfo[_pid].allocPoint;\n        poolInfo[_pid].allocPoint = _allocPoint;\n        if (prevAllocPoint != _allocPoint) {\n            totalAllocPoint = totalAllocPoint.sub(prevAllocPoint).add(_allocPoint);\n            updateStakingPool();\n        }\n    }\n\n    function updateStakingPool() internal {\n        uint256 length = poolInfo.length;\n        uint256 points = 0;\n        for (uint256 pid = 0; pid < length; ++pid) {\n            points = points.add(poolInfo[pid].allocPoint);\n        }\n        if (points != 0) {\n            points = points.div(3);\n            totalAllocPoint = totalAllocPoint.sub(poolInfo[0].allocPoint).add(points);\n            poolInfo[0].allocPoint = points;\n        }\n    }\n\n    // Return reward multiplier over the given _from to _to block.\n    function getMultiplier(uint256 _from, uint256 _to) public view returns (uint256) {\n        return _to.sub(_from).mul(BONUS_MULTIPLIER);\n    }\n\n    // View function to see pending CAKEs on frontend.\n    function pendingDIY(uint256 _pid, address _user) external view returns (uint256) {\n        PoolInfo storage pool = poolInfo[_pid];\n        UserInfo storage user = userInfo[_pid][_user];\n        uint256 accDIYPerShare = pool.accDIYPerShare;\n        uint256 lpSupply = pool.lpToken.balanceOf(address(this));\n        if (block.number > pool.lastRewardBlock && lpSupply != 0) {\n            uint256 multiplier = getMultiplier(pool.lastRewardBlock, block.number);\n            uint256 diyReward = multiplier.mul(diyPerBlock).mul(pool.allocPoint).div(totalAllocPoint);\n            accDIYPerShare = accDIYPerShare.add(diyReward.mul(1e12).div(lpSupply));\n        }\n        return user.amount.mul(accDIYPerShare).div(1e12).sub(user.rewardDebt);\n    }\n\n    // Update reward variables for all pools. Be careful of gas spending!\n    function massUpdatePools() public {\n        uint256 length = poolInfo.length;\n        for (uint256 pid = 0; pid < length; ++pid) {\n            updatePool(pid);\n        }\n    }\n\n    // Update reward variables of the given pool to be up-to-date.\n    function updatePool(uint256 _pid) public {\n        PoolInfo storage pool = poolInfo[_pid];\n        if (block.number <= pool.lastRewardBlock) {\n            return;\n        }\n        uint256 lpSupply = pool.lpToken.balanceOf(address(this));\n        if (lpSupply == 0) {\n            pool.lastRewardBlock = block.number;\n            return;\n        }\n        uint256 multiplier = getMultiplier(pool.lastRewardBlock, block.number);\n        uint256 diyReward = multiplier.mul(diyPerBlock).mul(pool.allocPoint).div(totalAllocPoint);\n        \n        diyToken.mint(devaddr, diyReward.div(10));\n        diyToken.mint(address(diyToken), diyReward);\n        \n        pool.accDIYPerShare = pool.accDIYPerShare.add(diyReward.mul(1e12).div(lpSupply));\n        pool.lastRewardBlock = block.number;\n    }\n\n    // Deposit LP tokens to MasterChef for CAKE allocation.\n    function deposit(uint256 _pid, uint256 _amount) public {\n        PoolInfo storage pool = poolInfo[_pid];\n        UserInfo storage user = userInfo[_pid][msg.sender];\n        updatePool(_pid);\n        if (user.amount > 0) {\n            uint256 pending = user.amount.mul(pool.accDIYPerShare).div(1e12).sub(user.rewardDebt);\n            if(pending > 0) {\n                DIYToken(diyToken).safeDIYTransfer(msg.sender, pending);\n            }\n        }\n        if (_amount > 0) {\n            TransferHelper.safeTransferFrom(address(pool.lpToken), address(msg.sender), address(this), _amount);\n            user.amount = user.amount.add(_amount);\n        }\n        user.rewardDebt = user.amount.mul(pool.accDIYPerShare).div(1e12);\n        emit Deposit(msg.sender, _pid, _amount);\n    }\n    // Withdraw LP tokens from MasterChef.\n    function withdraw(uint256 _pid, uint256 _amount) public {\n        PoolInfo storage pool = poolInfo[_pid];\n        UserInfo storage user = userInfo[_pid][msg.sender];\n        require(user.amount >= _amount, \"withdraw: not good\");\n\n        updatePool(_pid);\n        uint256 pending = user.amount.mul(pool.accDIYPerShare).div(1e12).sub(user.rewardDebt);\n        \n        if(pending > 0) {\n            DIYToken(diyToken).safeDIYTransfer(msg.sender, pending);\n        }\n        if(_amount > 0) {\n            user.amount = user.amount.sub(_amount);\n            TransferHelper.safeTransfer(address(pool.lpToken), address(msg.sender), _amount);\n        }\n        user.rewardDebt = user.amount.mul(pool.accDIYPerShare).div(1e12);\n        emit Withdraw(msg.sender, _pid, _amount);\n    }\n\n    // Stake CAKE tokens to MasterChef\n    function enterStaking(uint256 _amount) public {\n        PoolInfo storage pool = poolInfo[0];\n        UserInfo storage user = userInfo[0][msg.sender];\n        updatePool(0);\n        if (user.amount > 0) {\n            uint256 pending = user.amount.mul(pool.accDIYPerShare).div(1e12).sub(user.rewardDebt);\n            if(pending > 0) {\n                DIYToken(diyToken).safeDIYTransfer(msg.sender, pending);\n            }\n        }\n        if(_amount > 0) {\n            TransferHelper.safeTransferFrom(address(pool.lpToken), address(msg.sender), address(this), _amount);\n            user.amount = user.amount.add(_amount);\n        }\n        user.rewardDebt = user.amount.mul(pool.accDIYPerShare).div(1e12);\n\n        diyToken.mint(msg.sender, _amount);\n        emit Deposit(msg.sender, 0, _amount);\n    }\n\n    // Withdraw CAKE tokens from STAKING.\n    function leaveStaking(uint256 _amount) public {\n        PoolInfo storage pool = poolInfo[0];\n        UserInfo storage user = userInfo[0][msg.sender];\n        require(user.amount >= _amount, \"withdraw: not good\");\n        updatePool(0);\n        uint256 pending = user.amount.mul(pool.accDIYPerShare).div(1e12).sub(user.rewardDebt);\n        if(pending > 0) {\n            DIYToken(diyToken).safeDIYTransfer(msg.sender, pending);\n        }\n        if(_amount > 0) {\n            user.amount = user.amount.sub(_amount);\n            TransferHelper.safeTransfer(address(pool.lpToken), address(msg.sender), _amount);\n        }\n        user.rewardDebt = user.amount.mul(pool.accDIYPerShare).div(1e12);\n\n        diyToken.burn(msg.sender, _amount);\n        emit Withdraw(msg.sender, 0, _amount);\n    }\n\n    // Withdraw without caring about rewards. EMERGENCY ONLY.\n    function emergencyWithdraw(uint256 _pid) public {\n        PoolInfo storage pool = poolInfo[_pid];\n        UserInfo storage user = userInfo[_pid][msg.sender];\n        TransferHelper.safeTransfer(address(pool.lpToken), address(msg.sender), user.amount);\n        emit EmergencyWithdraw(msg.sender, _pid, user.amount);\n        user.amount = 0;\n        user.rewardDebt = 0;\n    }\n    \n    // Update dev address by the previous dev.\n    function dev(address _devaddr) public {\n        require(msg.sender == devaddr, \"dev: wut?\");\n        devaddr = _devaddr;\n    }\n}",
  "sourcePath": "/Users/michaelzhou/Desktop/DIYSwap/DIYSwap/contracts/DIYMaster.sol",
  "compiler": {
    "name": "solc",
    "version": "0.8.13+commit.abaa5c0e.Emscripten.clang"
  },
  "schemaVersion": "3.4.4",
  "updatedAt": "2022-04-13T13:53:53.682Z",
  "networkType": "ethereum",
  "devdoc": {
    "kind": "dev",
    "methods": {
      "owner()": {
        "details": "Returns the address of the current owner."
      },
      "renounceOwnership()": {
        "details": "Leaves the contract without owner. It will not be possible to call `onlyOwner` functions anymore. Can only be called by the current owner. NOTE: Renouncing ownership will leave the contract without an owner, thereby removing any functionality that is only available to the owner."
      },
      "transferOwnership(address)": {
        "details": "Transfers ownership of the contract to a new account (`newOwner`). Can only be called by the current owner."
      }
    },
    "version": 1
  },
  "userdoc": {
    "kind": "user",
    "methods": {},
    "version": 1
  }
}