{
  "contractName": "DIYPair",
  "abi": [
    {
      "inputs": [],
      "stateMutability": "nonpayable",
      "type": "constructor"
    },
    {
      "anonymous": false,
      "inputs": [
        {
          "indexed": true,
          "internalType": "address",
          "name": "owner",
          "type": "address"
        },
        {
          "indexed": true,
          "internalType": "address",
          "name": "spender",
          "type": "address"
        },
        {
          "indexed": false,
          "internalType": "uint256",
          "name": "value",
          "type": "uint256"
        }
      ],
      "name": "Approval",
      "type": "event"
    },
    {
      "anonymous": false,
      "inputs": [
        {
          "indexed": true,
          "internalType": "address",
          "name": "sender",
          "type": "address"
        },
        {
          "indexed": false,
          "internalType": "uint256",
          "name": "amount0",
          "type": "uint256"
        },
        {
          "indexed": false,
          "internalType": "uint256",
          "name": "amount1",
          "type": "uint256"
        },
        {
          "indexed": true,
          "internalType": "address",
          "name": "to",
          "type": "address"
        }
      ],
      "name": "Burn",
      "type": "event"
    },
    {
      "anonymous": false,
      "inputs": [
        {
          "indexed": false,
          "internalType": "uint256",
          "name": "",
          "type": "uint256"
        },
        {
          "indexed": false,
          "internalType": "uint256",
          "name": "",
          "type": "uint256"
        },
        {
          "indexed": false,
          "internalType": "uint256",
          "name": "",
          "type": "uint256"
        },
        {
          "indexed": false,
          "internalType": "uint256",
          "name": "",
          "type": "uint256"
        }
      ],
      "name": "Check",
      "type": "event"
    },
    {
      "anonymous": false,
      "inputs": [
        {
          "indexed": false,
          "internalType": "uint256",
          "name": "amount0",
          "type": "uint256"
        },
        {
          "indexed": false,
          "internalType": "uint256",
          "name": "amount1",
          "type": "uint256"
        },
        {
          "indexed": false,
          "internalType": "uint256",
          "name": "liquidity",
          "type": "uint256"
        }
      ],
      "name": "Liquidity",
      "type": "event"
    },
    {
      "anonymous": false,
      "inputs": [
        {
          "indexed": true,
          "internalType": "address",
          "name": "sender",
          "type": "address"
        },
        {
          "indexed": false,
          "internalType": "uint256",
          "name": "amount0",
          "type": "uint256"
        },
        {
          "indexed": false,
          "internalType": "uint256",
          "name": "amount1",
          "type": "uint256"
        }
      ],
      "name": "Mint",
      "type": "event"
    },
    {
      "anonymous": false,
      "inputs": [
        {
          "indexed": true,
          "internalType": "address",
          "name": "sender",
          "type": "address"
        },
        {
          "indexed": false,
          "internalType": "uint256",
          "name": "amount0In",
          "type": "uint256"
        },
        {
          "indexed": false,
          "internalType": "uint256",
          "name": "amount1In",
          "type": "uint256"
        },
        {
          "indexed": false,
          "internalType": "uint256",
          "name": "amount0Out",
          "type": "uint256"
        },
        {
          "indexed": false,
          "internalType": "uint256",
          "name": "amount1Out",
          "type": "uint256"
        },
        {
          "indexed": true,
          "internalType": "address",
          "name": "to",
          "type": "address"
        }
      ],
      "name": "Swap",
      "type": "event"
    },
    {
      "anonymous": false,
      "inputs": [
        {
          "indexed": false,
          "internalType": "uint112",
          "name": "reserve0",
          "type": "uint112"
        },
        {
          "indexed": false,
          "internalType": "uint112",
          "name": "reserve1",
          "type": "uint112"
        }
      ],
      "name": "Sync",
      "type": "event"
    },
    {
      "anonymous": false,
      "inputs": [
        {
          "indexed": true,
          "internalType": "address",
          "name": "from",
          "type": "address"
        },
        {
          "indexed": true,
          "internalType": "address",
          "name": "to",
          "type": "address"
        },
        {
          "indexed": false,
          "internalType": "uint256",
          "name": "value",
          "type": "uint256"
        }
      ],
      "name": "Transfer",
      "type": "event"
    },
    {
      "inputs": [],
      "name": "DOMAIN_SEPARATOR",
      "outputs": [
        {
          "internalType": "bytes32",
          "name": "",
          "type": "bytes32"
        }
      ],
      "stateMutability": "view",
      "type": "function",
      "constant": true
    },
    {
      "inputs": [],
      "name": "MINIMUM_LIQUIDITY",
      "outputs": [
        {
          "internalType": "uint256",
          "name": "",
          "type": "uint256"
        }
      ],
      "stateMutability": "view",
      "type": "function",
      "constant": true
    },
    {
      "inputs": [],
      "name": "PERMIT_TYPEHASH",
      "outputs": [
        {
          "internalType": "bytes32",
          "name": "",
          "type": "bytes32"
        }
      ],
      "stateMutability": "view",
      "type": "function",
      "constant": true
    },
    {
      "inputs": [
        {
          "internalType": "address",
          "name": "to",
          "type": "address"
        },
        {
          "internalType": "uint256",
          "name": "value",
          "type": "uint256"
        }
      ],
      "name": "_mint",
      "outputs": [],
      "stateMutability": "nonpayable",
      "type": "function"
    },
    {
      "inputs": [
        {
          "internalType": "address",
          "name": "",
          "type": "address"
        },
        {
          "internalType": "address",
          "name": "",
          "type": "address"
        }
      ],
      "name": "allowance",
      "outputs": [
        {
          "internalType": "uint256",
          "name": "",
          "type": "uint256"
        }
      ],
      "stateMutability": "view",
      "type": "function",
      "constant": true
    },
    {
      "inputs": [
        {
          "internalType": "address",
          "name": "spender",
          "type": "address"
        },
        {
          "internalType": "uint256",
          "name": "value",
          "type": "uint256"
        }
      ],
      "name": "approve",
      "outputs": [
        {
          "internalType": "bool",
          "name": "",
          "type": "bool"
        }
      ],
      "stateMutability": "nonpayable",
      "type": "function"
    },
    {
      "inputs": [
        {
          "internalType": "address",
          "name": "",
          "type": "address"
        }
      ],
      "name": "balanceOf",
      "outputs": [
        {
          "internalType": "uint256",
          "name": "",
          "type": "uint256"
        }
      ],
      "stateMutability": "view",
      "type": "function",
      "constant": true
    },
    {
      "inputs": [],
      "name": "decimals",
      "outputs": [
        {
          "internalType": "uint8",
          "name": "",
          "type": "uint8"
        }
      ],
      "stateMutability": "view",
      "type": "function",
      "constant": true
    },
    {
      "inputs": [],
      "name": "factory",
      "outputs": [
        {
          "internalType": "address",
          "name": "",
          "type": "address"
        }
      ],
      "stateMutability": "view",
      "type": "function",
      "constant": true
    },
    {
      "inputs": [],
      "name": "kLast",
      "outputs": [
        {
          "internalType": "uint256",
          "name": "",
          "type": "uint256"
        }
      ],
      "stateMutability": "view",
      "type": "function",
      "constant": true
    },
    {
      "inputs": [],
      "name": "name",
      "outputs": [
        {
          "internalType": "string",
          "name": "",
          "type": "string"
        }
      ],
      "stateMutability": "view",
      "type": "function",
      "constant": true
    },
    {
      "inputs": [
        {
          "internalType": "address",
          "name": "",
          "type": "address"
        }
      ],
      "name": "nonces",
      "outputs": [
        {
          "internalType": "uint256",
          "name": "",
          "type": "uint256"
        }
      ],
      "stateMutability": "view",
      "type": "function",
      "constant": true
    },
    {
      "inputs": [],
      "name": "price0CumulativeLast",
      "outputs": [
        {
          "internalType": "uint256",
          "name": "",
          "type": "uint256"
        }
      ],
      "stateMutability": "view",
      "type": "function",
      "constant": true
    },
    {
      "inputs": [],
      "name": "price1CumulativeLast",
      "outputs": [
        {
          "internalType": "uint256",
          "name": "",
          "type": "uint256"
        }
      ],
      "stateMutability": "view",
      "type": "function",
      "constant": true
    },
    {
      "inputs": [],
      "name": "symbol",
      "outputs": [
        {
          "internalType": "string",
          "name": "",
          "type": "string"
        }
      ],
      "stateMutability": "view",
      "type": "function",
      "constant": true
    },
    {
      "inputs": [],
      "name": "token0",
      "outputs": [
        {
          "internalType": "address",
          "name": "",
          "type": "address"
        }
      ],
      "stateMutability": "view",
      "type": "function",
      "constant": true
    },
    {
      "inputs": [],
      "name": "token1",
      "outputs": [
        {
          "internalType": "address",
          "name": "",
          "type": "address"
        }
      ],
      "stateMutability": "view",
      "type": "function",
      "constant": true
    },
    {
      "inputs": [],
      "name": "totalSupply",
      "outputs": [
        {
          "internalType": "uint256",
          "name": "",
          "type": "uint256"
        }
      ],
      "stateMutability": "view",
      "type": "function",
      "constant": true
    },
    {
      "inputs": [
        {
          "internalType": "address",
          "name": "to",
          "type": "address"
        },
        {
          "internalType": "uint256",
          "name": "value",
          "type": "uint256"
        }
      ],
      "name": "transfer",
      "outputs": [
        {
          "internalType": "bool",
          "name": "",
          "type": "bool"
        }
      ],
      "stateMutability": "nonpayable",
      "type": "function"
    },
    {
      "inputs": [],
      "name": "getReserves",
      "outputs": [
        {
          "internalType": "uint112",
          "name": "_reserve0",
          "type": "uint112"
        },
        {
          "internalType": "uint112",
          "name": "_reserve1",
          "type": "uint112"
        },
        {
          "internalType": "uint32",
          "name": "_blockTimestampLast",
          "type": "uint32"
        }
      ],
      "stateMutability": "view",
      "type": "function",
      "constant": true
    },
    {
      "inputs": [
        {
          "internalType": "address",
          "name": "from",
          "type": "address"
        },
        {
          "internalType": "address",
          "name": "to",
          "type": "address"
        },
        {
          "internalType": "uint256",
          "name": "value",
          "type": "uint256"
        }
      ],
      "name": "transferFrom",
      "outputs": [
        {
          "internalType": "bool",
          "name": "",
          "type": "bool"
        }
      ],
      "stateMutability": "nonpayable",
      "type": "function"
    },
    {
      "inputs": [
        {
          "internalType": "address",
          "name": "owner",
          "type": "address"
        },
        {
          "internalType": "address",
          "name": "spender",
          "type": "address"
        },
        {
          "internalType": "uint256",
          "name": "value",
          "type": "uint256"
        },
        {
          "internalType": "uint256",
          "name": "deadline",
          "type": "uint256"
        },
        {
          "internalType": "uint8",
          "name": "v",
          "type": "uint8"
        },
        {
          "internalType": "bytes32",
          "name": "r",
          "type": "bytes32"
        },
        {
          "internalType": "bytes32",
          "name": "s",
          "type": "bytes32"
        }
      ],
      "name": "permit",
      "outputs": [],
      "stateMutability": "nonpayable",
      "type": "function"
    },
    {
      "inputs": [
        {
          "internalType": "address",
          "name": "_token0",
          "type": "address"
        },
        {
          "internalType": "address",
          "name": "_token1",
          "type": "address"
        }
      ],
      "name": "initialize",
      "outputs": [],
      "stateMutability": "nonpayable",
      "type": "function"
    },
    {
      "inputs": [
        {
          "internalType": "address",
          "name": "to",
          "type": "address"
        }
      ],
      "name": "mint",
      "outputs": [
        {
          "internalType": "uint256",
          "name": "liquidity",
          "type": "uint256"
        }
      ],
      "stateMutability": "nonpayable",
      "type": "function"
    },
    {
      "inputs": [
        {
          "internalType": "address",
          "name": "to",
          "type": "address"
        }
      ],
      "name": "burn",
      "outputs": [
        {
          "internalType": "uint256",
          "name": "amount0",
          "type": "uint256"
        },
        {
          "internalType": "uint256",
          "name": "amount1",
          "type": "uint256"
        }
      ],
      "stateMutability": "nonpayable",
      "type": "function"
    },
    {
      "inputs": [
        {
          "internalType": "uint256",
          "name": "amount0Out",
          "type": "uint256"
        },
        {
          "internalType": "uint256",
          "name": "amount1Out",
          "type": "uint256"
        },
        {
          "internalType": "address",
          "name": "to",
          "type": "address"
        },
        {
          "internalType": "bytes",
          "name": "data",
          "type": "bytes"
        }
      ],
      "name": "swap",
      "outputs": [],
      "stateMutability": "nonpayable",
      "type": "function"
    },
    {
      "inputs": [
        {
          "internalType": "address",
          "name": "to",
          "type": "address"
        }
      ],
      "name": "skim",
      "outputs": [],
      "stateMutability": "nonpayable",
      "type": "function"
    },
    {
      "inputs": [],
      "name": "sync",
      "outputs": [],
      "stateMutability": "nonpayable",
      "type": "function"
    }
  ],
  "bytecode": "0x60806040526001600c553480156200001657600080fd5b5060004690507f8b73c3c69bb8fe3d512ecc4cf759cc79239f7b179b0ffacaa9a75d522b39400f6040518060400160405280600781526020017f444959204c507300000000000000000000000000000000000000000000000000815250805190602001206040518060400160405280600181526020017f3100000000000000000000000000000000000000000000000000000000000000815250805190602001208330604051602001620000cf959493929190620001ae565b604051602081830303815290604052805190602001206003819055505033600560006101000a81548173ffffffffffffffffffffffffffffffffffffffff021916908373ffffffffffffffffffffffffffffffffffffffff1602179055506200020b565b6000819050919050565b620001488162000133565b82525050565b6000819050919050565b62000163816200014e565b82525050565b600073ffffffffffffffffffffffffffffffffffffffff82169050919050565b6000620001968262000169565b9050919050565b620001a88162000189565b82525050565b600060a082019050620001c560008301886200013d565b620001d460208301876200013d565b620001e360408301866200013d565b620001f2606083018562000158565b6200020160808301846200019d565b9695505050505050565b6141b0806200021b6000396000f3fe608060405234801561001057600080fd5b50600436106101c45760003560e01c80636a627842116100f9578063ba9a7a5611610097578063d21220a711610071578063d21220a714610512578063d505accf14610530578063dd62ed3e1461054c578063fff6cae91461057c576101c4565b8063ba9a7a56146104ba578063bc25cf77146104d8578063c45a0155146104f4576101c4565b80637ecebe00116100d35780637ecebe001461040b57806389afcb441461043b57806395d89b411461046c578063a9059cbb1461048a576101c4565b80636a6278421461038d57806370a08231146103bd5780637464fc3d146103ed576101c4565b806330adf81f11610166578063485cc95511610140578063485cc955146103195780634e6ec247146103355780635909c0d5146103515780635a3d54931461036f576101c4565b806330adf81f146102bf578063313ce567146102dd5780633644e515146102fb576101c4565b8063095ea7b3116101a2578063095ea7b3146102235780630dfe16811461025357806318160ddd1461027157806323b872dd1461028f576101c4565b8063022c0d9f146101c957806306fdde03146101e55780630902f1ac14610203575b600080fd5b6101e360048036038101906101de9190612fc8565b610586565b005b6101ed610c15565b6040516101fa91906130e9565b60405180910390f35b61020b610c4e565b60405161021a93929190613153565b60405180910390f35b61023d6004803603810190610238919061318a565b610cab565b60405161024a91906131e5565b60405180910390f35b61025b610cc2565b604051610268919061320f565b60405180910390f35b610279610ce8565b6040516102869190613239565b60405180910390f35b6102a960048036038101906102a49190613254565b610cee565b6040516102b691906131e5565b60405180910390f35b6102c7610ea2565b6040516102d491906132c0565b60405180910390f35b6102e5610ec9565b6040516102f291906132f7565b60405180910390f35b610303610ece565b60405161031091906132c0565b60405180910390f35b610333600480360381019061032e9190613312565b610ed4565b005b61034f600480360381019061034a919061318a565b610fea565b005b610359611104565b6040516103669190613239565b60405180910390f35b61037761110a565b6040516103849190613239565b60405180910390f35b6103a760048036038101906103a29190613352565b611110565b6040516103b49190613239565b60405180910390f35b6103d760048036038101906103d29190613352565b6114f9565b6040516103e49190613239565b60405180910390f35b6103f5611511565b6040516104029190613239565b60405180910390f35b61042560048036038101906104209190613352565b611517565b6040516104329190613239565b60405180910390f35b61045560048036038101906104509190613352565b61152f565b60405161046392919061337f565b60405180910390f35b6104746119d9565b60405161048191906130e9565b60405180910390f35b6104a4600480360381019061049f919061318a565b611a12565b6040516104b191906131e5565b60405180910390f35b6104c2611a29565b6040516104cf9190613239565b60405180910390f35b6104f260048036038101906104ed9190613352565b611a2f565b005b6104fc611c5b565b604051610509919061320f565b60405180910390f35b61051a611c81565b604051610527919061320f565b60405180910390f35b61054a60048036038101906105459190613400565b611ca7565b005b61056660048036038101906105619190613312565b611ecf565b6040516105739190613239565b60405180910390f35b610584611ef4565b005b6001600c54146105cb576040517f08c379a00000000000000000000000000000000000000000000000000000000081526004016105c2906134ee565b60405180910390fd5b6000600c8190555060008511806105e25750600084115b610621576040517f08c379a00000000000000000000000000000000000000000000000000000000081526004016106189061355a565b60405180910390fd5b60008061062c610c4e565b5091509150816dffffffffffffffffffffffffffff168710801561065f5750806dffffffffffffffffffffffffffff1686105b61069e576040517f08c379a0000000000000000000000000000000000000000000000000000000008152600401610695906135c6565b60405180910390fd5b6000806000600660009054906101000a900473ffffffffffffffffffffffffffffffffffffffff1690506000600760009054906101000a900473ffffffffffffffffffffffffffffffffffffffff1690508173ffffffffffffffffffffffffffffffffffffffff168973ffffffffffffffffffffffffffffffffffffffff161415801561075757508073ffffffffffffffffffffffffffffffffffffffff168973ffffffffffffffffffffffffffffffffffffffff1614155b610796576040517f08c379a000000000000000000000000000000000000000000000000000000000815260040161078d90613632565b60405180910390fd5b60008b11156107ab576107aa828a8d6120c5565b5b60008a11156107c0576107bf818a8c6120c5565b5b6000888890501115610840578873ffffffffffffffffffffffffffffffffffffffff166384800812338d8d8c8c6040518663ffffffff1660e01b815260040161080d95949392919061369f565b600060405180830381600087803b15801561082757600080fd5b505af115801561083b573d6000803e3d6000fd5b505050505b8173ffffffffffffffffffffffffffffffffffffffff166370a08231306040518263ffffffff1660e01b8152600401610879919061320f565b602060405180830381865afa158015610896573d6000803e3d6000fd5b505050506040513d601f19601f820116820180604052508101906108ba9190613702565b93508073ffffffffffffffffffffffffffffffffffffffff166370a08231306040518263ffffffff1660e01b81526004016108f5919061320f565b602060405180830381865afa158015610912573d6000803e3d6000fd5b505050506040513d601f19601f820116820180604052508101906109369190613702565b92507f81f79af534e4b1ca0d10396f629c15009aee553bb79686b1ea14f82663eab83984848d8d60405161096d949392919061372f565b60405180910390a15050600089856dffffffffffffffffffffffffffff1661099591906137a3565b83116109a25760006109ca565b89856dffffffffffffffffffffffffffff166109be91906137a3565b836109c991906137a3565b5b9050600089856dffffffffffffffffffffffffffff166109ea91906137a3565b83116109f7576000610a1f565b89856dffffffffffffffffffffffffffff16610a1391906137a3565b83610a1e91906137a3565b5b90506000821180610a305750600081115b610a6f576040517f08c379a0000000000000000000000000000000000000000000000000000000008152600401610a6690613823565b60405180910390fd5b6000610aab610a886002856121e090919063ffffffff16565b610a9d6103e8886121e090919063ffffffff16565b61224d90919063ffffffff16565b90506000610ae9610ac66002856121e090919063ffffffff16565b610adb6103e8886121e090919063ffffffff16565b61224d90919063ffffffff16565b9050610b33620f4240610b25896dffffffffffffffffffffffffffff168b6dffffffffffffffffffffffffffff166121e090919063ffffffff16565b6121e090919063ffffffff16565b610b4682846121e090919063ffffffff16565b1015610b87576040517f08c379a0000000000000000000000000000000000000000000000000000000008152600401610b7e9061388f565b60405180910390fd5b5050610b95848488886122a6565b8873ffffffffffffffffffffffffffffffffffffffff163373ffffffffffffffffffffffffffffffffffffffff167fd78ad95fa46c994b6551d0da85fc275fe613ce37657fb8d5e3d130840159d82284848f8f604051610bf8949392919061372f565b60405180910390a35050505050506001600c819055505050505050565b6040518060400160405280600781526020017f444959204c50730000000000000000000000000000000000000000000000000081525081565b6000806000600860009054906101000a90046dffffffffffffffffffffffffffff1692506008600e9054906101000a90046dffffffffffffffffffffffffffff1691506008601c9054906101000a900463ffffffff169050909192565b6000610cb8338484612596565b6001905092915050565b600660009054906101000a900473ffffffffffffffffffffffffffffffffffffffff1681565b60005481565b600081600260008673ffffffffffffffffffffffffffffffffffffffff1673ffffffffffffffffffffffffffffffffffffffff16815260200190815260200160002060003373ffffffffffffffffffffffffffffffffffffffff1673ffffffffffffffffffffffffffffffffffffffff1681526020019081526020016000205410610e9657610e0282600260008773ffffffffffffffffffffffffffffffffffffffff1673ffffffffffffffffffffffffffffffffffffffff16815260200190815260200160002060003373ffffffffffffffffffffffffffffffffffffffff1673ffffffffffffffffffffffffffffffffffffffff1681526020019081526020016000205461224d90919063ffffffff16565b600260008673ffffffffffffffffffffffffffffffffffffffff1673ffffffffffffffffffffffffffffffffffffffff16815260200190815260200160002060003373ffffffffffffffffffffffffffffffffffffffff1673ffffffffffffffffffffffffffffffffffffffff16815260200190815260200160002081905550610e8d848484612681565b60019050610e9b565b600090505b9392505050565b7f6e71edae12b1b97f4d1f60370fef10105fa2faae0126114a169c64845d6126c960001b81565b601281565b60035481565b600560009054906101000a900473ffffffffffffffffffffffffffffffffffffffff1673ffffffffffffffffffffffffffffffffffffffff163373ffffffffffffffffffffffffffffffffffffffff1614610f64576040517f08c379a0000000000000000000000000000000000000000000000000000000008152600401610f5b906138fb565b60405180910390fd5b81600660006101000a81548173ffffffffffffffffffffffffffffffffffffffff021916908373ffffffffffffffffffffffffffffffffffffffff16021790555080600760006101000a81548173ffffffffffffffffffffffffffffffffffffffff021916908373ffffffffffffffffffffffffffffffffffffffff1602179055505050565b610fff8160005461281590919063ffffffff16565b60008190555061105781600160008573ffffffffffffffffffffffffffffffffffffffff1673ffffffffffffffffffffffffffffffffffffffff1681526020019081526020016000205461281590919063ffffffff16565b600160008473ffffffffffffffffffffffffffffffffffffffff1673ffffffffffffffffffffffffffffffffffffffff168152602001908152602001600020819055508173ffffffffffffffffffffffffffffffffffffffff16600073ffffffffffffffffffffffffffffffffffffffff167fddf252ad1be2c89b69c2b068fc378daa952ba7f163c4a11628f55a4df523b3ef836040516110f89190613239565b60405180910390a35050565b60095481565b600a5481565b60006001600c5414611157576040517f08c379a000000000000000000000000000000000000000000000000000000000815260040161114e906134ee565b60405180910390fd5b6000600c8190555060008061116a610c4e565b50915091506000600660009054906101000a900473ffffffffffffffffffffffffffffffffffffffff1673ffffffffffffffffffffffffffffffffffffffff166370a08231306040518263ffffffff1660e01b81526004016111cc919061320f565b602060405180830381865afa1580156111e9573d6000803e3d6000fd5b505050506040513d601f19601f8201168201806040525081019061120d9190613702565b90506000600760009054906101000a900473ffffffffffffffffffffffffffffffffffffffff1673ffffffffffffffffffffffffffffffffffffffff166370a08231306040518263ffffffff1660e01b815260040161126c919061320f565b602060405180830381865afa158015611289573d6000803e3d6000fd5b505050506040513d601f19601f820116820180604052508101906112ad9190613702565b905060006112d4856dffffffffffffffffffffffffffff168461224d90919063ffffffff16565b905060006112fb856dffffffffffffffffffffffffffff168461224d90919063ffffffff16565b90506000611309878761286e565b90506000805490506000810361135c576113486103e861133a61133586886121e090919063ffffffff16565b612a3f565b61224d90919063ffffffff16565b985061135760006103e8610fea565b6113c3565b6113c0886dffffffffffffffffffffffffffff1661138383876121e090919063ffffffff16565b61138d919061394a565b886dffffffffffffffffffffffffffff166113b184876121e090919063ffffffff16565b6113bb919061394a565b612ab9565b98505b60008911611406576040517f08c379a00000000000000000000000000000000000000000000000000000000081526004016113fd906139ed565b60405180910390fd5b6114108a8a610fea565b61141c86868a8a6122a6565b81156114945761148d6008600e9054906101000a90046dffffffffffffffffffffffffffff166dffffffffffffffffffffffffffff16600860009054906101000a90046dffffffffffffffffffffffffffff166dffffffffffffffffffffffffffff166121e090919063ffffffff16565b600b819055505b3373ffffffffffffffffffffffffffffffffffffffff167f4c209b5fc8ad50758f13e2e1088ba56a560dff690a1c6fef26394f4c03821c4f85856040516114dc92919061337f565b60405180910390a250505050505050506001600c81905550919050565b60016020528060005260406000206000915090505481565b600b5481565b60046020528060005260406000206000915090505481565b6000806001600c5414611577576040517f08c379a000000000000000000000000000000000000000000000000000000000815260040161156e906134ee565b60405180910390fd5b6000600c8190555060008061158a610c4e565b50915091506000600660009054906101000a900473ffffffffffffffffffffffffffffffffffffffff1690506000600760009054906101000a900473ffffffffffffffffffffffffffffffffffffffff16905060008273ffffffffffffffffffffffffffffffffffffffff166370a08231306040518263ffffffff1660e01b8152600401611618919061320f565b602060405180830381865afa158015611635573d6000803e3d6000fd5b505050506040513d601f19601f820116820180604052508101906116599190613702565b905060008273ffffffffffffffffffffffffffffffffffffffff166370a08231306040518263ffffffff1660e01b8152600401611696919061320f565b602060405180830381865afa1580156116b3573d6000803e3d6000fd5b505050506040513d601f19601f820116820180604052508101906116d79190613702565b90506000600160003073ffffffffffffffffffffffffffffffffffffffff1673ffffffffffffffffffffffffffffffffffffffff1681526020019081526020016000205490506000611729888861286e565b90506000805490508061174586856121e090919063ffffffff16565b61174f919061394a565b9a508061176585856121e090919063ffffffff16565b61176f919061394a565b995060008b118015611781575060008a115b6117c0576040517f08c379a00000000000000000000000000000000000000000000000000000000081526004016117b790613a7f565b60405180910390fd5b6117ca3084612ad2565b6117d5878d8d6120c5565b6117e0868d8c6120c5565b8673ffffffffffffffffffffffffffffffffffffffff166370a08231306040518263ffffffff1660e01b8152600401611819919061320f565b602060405180830381865afa158015611836573d6000803e3d6000fd5b505050506040513d601f19601f8201168201806040525081019061185a9190613702565b94508573ffffffffffffffffffffffffffffffffffffffff166370a08231306040518263ffffffff1660e01b8152600401611895919061320f565b602060405180830381865afa1580156118b2573d6000803e3d6000fd5b505050506040513d601f19601f820116820180604052508101906118d69190613702565b93506118e485858b8b6122a6565b811561195c576119556008600e9054906101000a90046dffffffffffffffffffffffffffff166dffffffffffffffffffffffffffff16600860009054906101000a90046dffffffffffffffffffffffffffff166dffffffffffffffffffffffffffff166121e090919063ffffffff16565b600b819055505b8b73ffffffffffffffffffffffffffffffffffffffff163373ffffffffffffffffffffffffffffffffffffffff167fdccd412f0b1252819cb1fd330b93224ca42612892bb3f4f789976e6d819364968d8d6040516119bb92919061337f565b60405180910390a35050505050505050506001600c81905550915091565b6040518060400160405280600681526020017f4449592d4c50000000000000000000000000000000000000000000000000000081525081565b6000611a1f338484612bec565b6001905092915050565b6103e881565b6001600c5414611a74576040517f08c379a0000000000000000000000000000000000000000000000000000000008152600401611a6b906134ee565b60405180910390fd5b6000600c819055506000600660009054906101000a900473ffffffffffffffffffffffffffffffffffffffff1690506000600760009054906101000a900473ffffffffffffffffffffffffffffffffffffffff169050611b8c8284611b87600860009054906101000a90046dffffffffffffffffffffffffffff166dffffffffffffffffffffffffffff168673ffffffffffffffffffffffffffffffffffffffff166370a08231306040518263ffffffff1660e01b8152600401611b38919061320f565b602060405180830381865afa158015611b55573d6000803e3d6000fd5b505050506040513d601f19601f82011682018060405250810190611b799190613702565b61224d90919063ffffffff16565b6120c5565b611c4e8184611c496008600e9054906101000a90046dffffffffffffffffffffffffffff166dffffffffffffffffffffffffffff168573ffffffffffffffffffffffffffffffffffffffff166370a08231306040518263ffffffff1660e01b8152600401611bfa919061320f565b602060405180830381865afa158015611c17573d6000803e3d6000fd5b505050506040513d601f19601f82011682018060405250810190611c3b9190613702565b61224d90919063ffffffff16565b6120c5565b50506001600c8190555050565b600560009054906101000a900473ffffffffffffffffffffffffffffffffffffffff1681565b600760009054906101000a900473ffffffffffffffffffffffffffffffffffffffff1681565b42841015611cea576040517f08c379a0000000000000000000000000000000000000000000000000000000008152600401611ce190613aeb565b60405180910390fd5b60006003547f6e71edae12b1b97f4d1f60370fef10105fa2faae0126114a169c64845d6126c960001b898989600460008e73ffffffffffffffffffffffffffffffffffffffff1673ffffffffffffffffffffffffffffffffffffffff1681526020019081526020016000206000815480929190611d6690613b0b565b919050558a604051602001611d8096959493929190613b53565b60405160208183030381529060405280519060200120604051602001611da7929190613c2c565b604051602081830303815290604052805190602001209050600060018286868660405160008152602001604052604051611de49493929190613c63565b6020604051602081039080840390855afa158015611e06573d6000803e3d6000fd5b505050602060405103519050600073ffffffffffffffffffffffffffffffffffffffff168173ffffffffffffffffffffffffffffffffffffffff1614158015611e7a57508873ffffffffffffffffffffffffffffffffffffffff168173ffffffffffffffffffffffffffffffffffffffff16145b611eb9576040517f08c379a0000000000000000000000000000000000000000000000000000000008152600401611eb090613cf4565b60405180910390fd5b611ec4898989612d80565b505050505050505050565b6002602052816000526040600020602052806000526040600020600091509150505481565b6001600c5414611f39576040517f08c379a0000000000000000000000000000000000000000000000000000000008152600401611f30906134ee565b60405180910390fd5b6000600c819055506120bb600660009054906101000a900473ffffffffffffffffffffffffffffffffffffffff1673ffffffffffffffffffffffffffffffffffffffff166370a08231306040518263ffffffff1660e01b8152600401611f9f919061320f565b602060405180830381865afa158015611fbc573d6000803e3d6000fd5b505050506040513d601f19601f82011682018060405250810190611fe09190613702565b600760009054906101000a900473ffffffffffffffffffffffffffffffffffffffff1673ffffffffffffffffffffffffffffffffffffffff166370a08231306040518263ffffffff1660e01b815260040161203b919061320f565b602060405180830381865afa158015612058573d6000803e3d6000fd5b505050506040513d601f19601f8201168201806040525081019061207c9190613702565b600860009054906101000a90046dffffffffffffffffffffffffffff166008600e9054906101000a90046dffffffffffffffffffffffffffff166122a6565b6001600c81905550565b8273ffffffffffffffffffffffffffffffffffffffff166040518060400160405280601981526020017f7472616e7366657228616464726573732c75696e74323536290000000000000081525080519060200120838360405160240161212c929190613d14565b604051602081830303815290604052907bffffffffffffffffffffffffffffffffffffffffffffffffffffffff19166020820180517bffffffffffffffffffffffffffffffffffffffffffffffffffffffff83818316178352505050506040516121969190613d84565b6000604051808303816000865af19150503d80600081146121d3576040519150601f19603f3d011682016040523d82523d6000602084013e6121d8565b606091505b505050505050565b6000808214806122085750828283856121f99190613d9b565b925082612206919061394a565b145b612247576040517f08c379a000000000000000000000000000000000000000000000000000000000815260040161223e90613e41565b60405180910390fd5b92915050565b600082828461225c91906137a3565b91508111156122a0576040517f08c379a000000000000000000000000000000000000000000000000000000000815260040161229790613ead565b60405180910390fd5b92915050565b6dffffffffffffffffffffffffffff84111580156122d257506dffffffffffffffffffffffffffff8311155b612311576040517f08c379a000000000000000000000000000000000000000000000000000000000815260040161230890613f19565b60405180910390fd5b6000640100000000426123249190613f39565b905060006008601c9054906101000a900463ffffffff16826123469190613f6a565b905060008163ffffffff1611801561236f57506000846dffffffffffffffffffffffffffff1614155b801561238c57506000836dffffffffffffffffffffffffffff1614155b15612492578063ffffffff166123d1856123a586612e6b565b7bffffffffffffffffffffffffffffffffffffffffffffffffffffffff16612e9f90919063ffffffff16565b7bffffffffffffffffffffffffffffffffffffffffffffffffffffffff166123f99190613d9b565b6009600082825461240a9190613f9e565b925050819055508063ffffffff166124518461242587612e6b565b7bffffffffffffffffffffffffffffffffffffffffffffffffffffffff16612e9f90919063ffffffff16565b7bffffffffffffffffffffffffffffffffffffffffffffffffffffffff166124799190613d9b565b600a600082825461248a9190613f9e565b925050819055505b85600860006101000a8154816dffffffffffffffffffffffffffff02191690836dffffffffffffffffffffffffffff160217905550846008600e6101000a8154816dffffffffffffffffffffffffffff02191690836dffffffffffffffffffffffffffff160217905550816008601c6101000a81548163ffffffff021916908363ffffffff1602179055507f1c411e9a96e071241c2f21f7726b17ae89e3cab4c78be50e062b03a9fffbbad1600860009054906101000a90046dffffffffffffffffffffffffffff166008600e9054906101000a90046dffffffffffffffffffffffffffff16604051612586929190613ff4565b60405180910390a1505050505050565b80600260008573ffffffffffffffffffffffffffffffffffffffff1673ffffffffffffffffffffffffffffffffffffffff16815260200190815260200160002060008473ffffffffffffffffffffffffffffffffffffffff1673ffffffffffffffffffffffffffffffffffffffff168152602001908152602001600020819055508173ffffffffffffffffffffffffffffffffffffffff168373ffffffffffffffffffffffffffffffffffffffff167f8c5be1e5ebec7d5bd14f71427d1e84f3dd0314c0f7b2291e5b200ac8c7c3b925836040516126749190613239565b60405180910390a3505050565b6126d381600160008673ffffffffffffffffffffffffffffffffffffffff1673ffffffffffffffffffffffffffffffffffffffff1681526020019081526020016000205461224d90919063ffffffff16565b600160008573ffffffffffffffffffffffffffffffffffffffff1673ffffffffffffffffffffffffffffffffffffffff1681526020019081526020016000208190555061276881600160008573ffffffffffffffffffffffffffffffffffffffff1673ffffffffffffffffffffffffffffffffffffffff1681526020019081526020016000205461281590919063ffffffff16565b600160008473ffffffffffffffffffffffffffffffffffffffff1673ffffffffffffffffffffffffffffffffffffffff168152602001908152602001600020819055508173ffffffffffffffffffffffffffffffffffffffff168373ffffffffffffffffffffffffffffffffffffffff167fddf252ad1be2c89b69c2b068fc378daa952ba7f163c4a11628f55a4df523b3ef836040516128089190613239565b60405180910390a3505050565b60008282846128249190613f9e565b9150811015612868576040517f08c379a000000000000000000000000000000000000000000000000000000000815260040161285f90614069565b60405180910390fd5b92915050565b600080600560009054906101000a900473ffffffffffffffffffffffffffffffffffffffff1673ffffffffffffffffffffffffffffffffffffffff1663017e7e586040518163ffffffff1660e01b8152600401602060405180830381865afa1580156128de573d6000803e3d6000fd5b505050506040513d601f19601f82011682018060405250810190612902919061409e565b9050600073ffffffffffffffffffffffffffffffffffffffff168173ffffffffffffffffffffffffffffffffffffffff16141591506000600b5490508215612a255760008114612a20576000612989612984866dffffffffffffffffffffffffffff16886dffffffffffffffffffffffffffff166121e090919063ffffffff16565b612a3f565b9050600061299683612a3f565b905080821115612a1d5760006129c96129b8838561224d90919063ffffffff16565b6000546121e090919063ffffffff16565b905060006129f3836129e56003876121e090919063ffffffff16565b61281590919063ffffffff16565b905060008183612a03919061394a565b90506000811115612a1957612a188782610fea565b5b5050505b50505b612a37565b60008114612a36576000600b819055505b5b505092915050565b60006003821115612aa65781905060006001600284612a5e919061394a565b612a689190613f9e565b90505b81811015612aa0578091506002818285612a85919061394a565b612a8f9190613f9e565b612a99919061394a565b9050612a6b565b50612ab4565b60008214612ab357600190505b5b919050565b6000818310612ac85781612aca565b825b905092915050565b612b2481600160008573ffffffffffffffffffffffffffffffffffffffff1673ffffffffffffffffffffffffffffffffffffffff1681526020019081526020016000205461224d90919063ffffffff16565b600160008473ffffffffffffffffffffffffffffffffffffffff1673ffffffffffffffffffffffffffffffffffffffff16815260200190815260200160002081905550612b7c8160005461224d90919063ffffffff16565b600081905550600073ffffffffffffffffffffffffffffffffffffffff168273ffffffffffffffffffffffffffffffffffffffff167fddf252ad1be2c89b69c2b068fc378daa952ba7f163c4a11628f55a4df523b3ef83604051612be09190613239565b60405180910390a35050565b612c3e81600160008673ffffffffffffffffffffffffffffffffffffffff1673ffffffffffffffffffffffffffffffffffffffff1681526020019081526020016000205461224d90919063ffffffff16565b600160008573ffffffffffffffffffffffffffffffffffffffff1673ffffffffffffffffffffffffffffffffffffffff16815260200190815260200160002081905550612cd381600160008573ffffffffffffffffffffffffffffffffffffffff1673ffffffffffffffffffffffffffffffffffffffff1681526020019081526020016000205461281590919063ffffffff16565b600160008473ffffffffffffffffffffffffffffffffffffffff1673ffffffffffffffffffffffffffffffffffffffff168152602001908152602001600020819055508173ffffffffffffffffffffffffffffffffffffffff168373ffffffffffffffffffffffffffffffffffffffff167fddf252ad1be2c89b69c2b068fc378daa952ba7f163c4a11628f55a4df523b3ef83604051612d739190613239565b60405180910390a3505050565b80600260008573ffffffffffffffffffffffffffffffffffffffff1673ffffffffffffffffffffffffffffffffffffffff16815260200190815260200160002060008473ffffffffffffffffffffffffffffffffffffffff1673ffffffffffffffffffffffffffffffffffffffff168152602001908152602001600020819055508173ffffffffffffffffffffffffffffffffffffffff168373ffffffffffffffffffffffffffffffffffffffff167f8c5be1e5ebec7d5bd14f71427d1e84f3dd0314c0f7b2291e5b200ac8c7c3b92583604051612e5e9190613239565b60405180910390a3505050565b60006e010000000000000000000000000000826dffffffffffffffffffffffffffff16612e9891906140f3565b9050919050565b6000816dffffffffffffffffffffffffffff1683612ebd9190614149565b905092915050565b600080fd5b600080fd5b6000819050919050565b612ee281612ecf565b8114612eed57600080fd5b50565b600081359050612eff81612ed9565b92915050565b600073ffffffffffffffffffffffffffffffffffffffff82169050919050565b6000612f3082612f05565b9050919050565b612f4081612f25565b8114612f4b57600080fd5b50565b600081359050612f5d81612f37565b92915050565b600080fd5b600080fd5b600080fd5b60008083601f840112612f8857612f87612f63565b5b8235905067ffffffffffffffff811115612fa557612fa4612f68565b5b602083019150836001820283011115612fc157612fc0612f6d565b5b9250929050565b600080600080600060808688031215612fe457612fe3612ec5565b5b6000612ff288828901612ef0565b955050602061300388828901612ef0565b945050604061301488828901612f4e565b935050606086013567ffffffffffffffff81111561303557613034612eca565b5b61304188828901612f72565b92509250509295509295909350565b600081519050919050565b600082825260208201905092915050565b60005b8381101561308a57808201518184015260208101905061306f565b83811115613099576000848401525b50505050565b6000601f19601f8301169050919050565b60006130bb82613050565b6130c5818561305b565b93506130d581856020860161306c565b6130de8161309f565b840191505092915050565b6000602082019050818103600083015261310381846130b0565b905092915050565b60006dffffffffffffffffffffffffffff82169050919050565b61312e8161310b565b82525050565b600063ffffffff82169050919050565b61314d81613134565b82525050565b60006060820190506131686000830186613125565b6131756020830185613125565b6131826040830184613144565b949350505050565b600080604083850312156131a1576131a0612ec5565b5b60006131af85828601612f4e565b92505060206131c085828601612ef0565b9150509250929050565b60008115159050919050565b6131df816131ca565b82525050565b60006020820190506131fa60008301846131d6565b92915050565b61320981612f25565b82525050565b60006020820190506132246000830184613200565b92915050565b61323381612ecf565b82525050565b600060208201905061324e600083018461322a565b92915050565b60008060006060848603121561326d5761326c612ec5565b5b600061327b86828701612f4e565b935050602061328c86828701612f4e565b925050604061329d86828701612ef0565b9150509250925092565b6000819050919050565b6132ba816132a7565b82525050565b60006020820190506132d560008301846132b1565b92915050565b600060ff82169050919050565b6132f1816132db565b82525050565b600060208201905061330c60008301846132e8565b92915050565b6000806040838503121561332957613328612ec5565b5b600061333785828601612f4e565b925050602061334885828601612f4e565b9150509250929050565b60006020828403121561336857613367612ec5565b5b600061337684828501612f4e565b91505092915050565b6000604082019050613394600083018561322a565b6133a1602083018461322a565b9392505050565b6133b1816132db565b81146133bc57600080fd5b50565b6000813590506133ce816133a8565b92915050565b6133dd816132a7565b81146133e857600080fd5b50565b6000813590506133fa816133d4565b92915050565b600080600080600080600060e0888a03121561341f5761341e612ec5565b5b600061342d8a828b01612f4e565b975050602061343e8a828b01612f4e565b965050604061344f8a828b01612ef0565b95505060606134608a828b01612ef0565b94505060806134718a828b016133bf565b93505060a06134828a828b016133eb565b92505060c06134938a828b016133eb565b91505092959891949750929550565b7f4449593a204c4f434b4544000000000000000000000000000000000000000000600082015250565b60006134d8600b8361305b565b91506134e3826134a2565b602082019050919050565b60006020820190508181036000830152613507816134cb565b9050919050565b7f4449593a20494e53554646494349454e545f4f55545055545f414d4f554e5400600082015250565b6000613544601f8361305b565b915061354f8261350e565b602082019050919050565b6000602082019050818103600083015261357381613537565b9050919050565b7f4449593a20494e53554646494349454e545f4c49515549444954590000000000600082015250565b60006135b0601b8361305b565b91506135bb8261357a565b602082019050919050565b600060208201905081810360008301526135df816135a3565b9050919050565b7f4449593a20494e56414c49445f544f0000000000000000000000000000000000600082015250565b600061361c600f8361305b565b9150613627826135e6565b602082019050919050565b6000602082019050818103600083015261364b8161360f565b9050919050565b600082825260208201905092915050565b82818337600083830152505050565b600061367e8385613652565b935061368b838584613663565b6136948361309f565b840190509392505050565b60006080820190506136b46000830188613200565b6136c1602083018761322a565b6136ce604083018661322a565b81810360608301526136e1818486613672565b90509695505050505050565b6000815190506136fc81612ed9565b92915050565b60006020828403121561371857613717612ec5565b5b6000613726848285016136ed565b91505092915050565b6000608082019050613744600083018761322a565b613751602083018661322a565b61375e604083018561322a565b61376b606083018461322a565b95945050505050565b7f4e487b7100000000000000000000000000000000000000000000000000000000600052601160045260246000fd5b60006137ae82612ecf565b91506137b983612ecf565b9250828210156137cc576137cb613774565b5b828203905092915050565b7f4449593a20494e53554646494349454e545f494e5055545f414d4f554e540000600082015250565b600061380d601e8361305b565b9150613818826137d7565b602082019050919050565b6000602082019050818103600083015261383c81613800565b9050919050565b7f4449593a204b0000000000000000000000000000000000000000000000000000600082015250565b600061387960068361305b565b915061388482613843565b602082019050919050565b600060208201905081810360008301526138a88161386c565b9050919050565b7f4449593a20464f5242494444454e000000000000000000000000000000000000600082015250565b60006138e5600e8361305b565b91506138f0826138af565b602082019050919050565b60006020820190508181036000830152613914816138d8565b9050919050565b7f4e487b7100000000000000000000000000000000000000000000000000000000600052601260045260246000fd5b600061395582612ecf565b915061396083612ecf565b9250826139705761396f61391b565b5b828204905092915050565b7f4449593a20494e53554646494349454e545f4c49515549444954595f4d494e5460008201527f4544000000000000000000000000000000000000000000000000000000000000602082015250565b60006139d760228361305b565b91506139e28261397b565b604082019050919050565b60006020820190508181036000830152613a06816139ca565b9050919050565b7f4449593a20494e53554646494349454e545f4c49515549444954595f4255524e60008201527f4544000000000000000000000000000000000000000000000000000000000000602082015250565b6000613a6960228361305b565b9150613a7482613a0d565b604082019050919050565b60006020820190508181036000830152613a9881613a5c565b9050919050565b7f4449593a20455850495245440000000000000000000000000000000000000000600082015250565b6000613ad5600c8361305b565b9150613ae082613a9f565b602082019050919050565b60006020820190508181036000830152613b0481613ac8565b9050919050565b6000613b1682612ecf565b91507fffffffffffffffffffffffffffffffffffffffffffffffffffffffffffffffff8203613b4857613b47613774565b5b600182019050919050565b600060c082019050613b6860008301896132b1565b613b756020830188613200565b613b826040830187613200565b613b8f606083018661322a565b613b9c608083018561322a565b613ba960a083018461322a565b979650505050505050565b600081905092915050565b7f1901000000000000000000000000000000000000000000000000000000000000600082015250565b6000613bf5600283613bb4565b9150613c0082613bbf565b600282019050919050565b6000819050919050565b613c26613c21826132a7565b613c0b565b82525050565b6000613c3782613be8565b9150613c438285613c15565b602082019150613c538284613c15565b6020820191508190509392505050565b6000608082019050613c7860008301876132b1565b613c8560208301866132e8565b613c9260408301856132b1565b613c9f60608301846132b1565b95945050505050565b7f4449593a20494e56414c49445f5349474e415455524500000000000000000000600082015250565b6000613cde60168361305b565b9150613ce982613ca8565b602082019050919050565b60006020820190508181036000830152613d0d81613cd1565b9050919050565b6000604082019050613d296000830185613200565b613d36602083018461322a565b9392505050565b600081519050919050565b600081905092915050565b6000613d5e82613d3d565b613d688185613d48565b9350613d7881856020860161306c565b80840191505092915050565b6000613d908284613d53565b915081905092915050565b6000613da682612ecf565b9150613db183612ecf565b9250817fffffffffffffffffffffffffffffffffffffffffffffffffffffffffffffffff0483118215151615613dea57613de9613774565b5b828202905092915050565b7f64732d6d6174682d6d756c2d6f766572666c6f77000000000000000000000000600082015250565b6000613e2b60148361305b565b9150613e3682613df5565b602082019050919050565b60006020820190508181036000830152613e5a81613e1e565b9050919050565b7f64732d6d6174682d7375622d756e646572666c6f770000000000000000000000600082015250565b6000613e9760158361305b565b9150613ea282613e61565b602082019050919050565b60006020820190508181036000830152613ec681613e8a565b9050919050565b7f44495945524332303a204f564552464c4f570000000000000000000000000000600082015250565b6000613f0360128361305b565b9150613f0e82613ecd565b602082019050919050565b60006020820190508181036000830152613f3281613ef6565b9050919050565b6000613f4482612ecf565b9150613f4f83612ecf565b925082613f5f57613f5e61391b565b5b828206905092915050565b6000613f7582613134565b9150613f8083613134565b925082821015613f9357613f92613774565b5b828203905092915050565b6000613fa982612ecf565b9150613fb483612ecf565b9250827fffffffffffffffffffffffffffffffffffffffffffffffffffffffffffffffff03821115613fe957613fe8613774565b5b828201905092915050565b60006040820190506140096000830185613125565b6140166020830184613125565b9392505050565b7f64732d6d6174682d6164642d6f766572666c6f77000000000000000000000000600082015250565b600061405360148361305b565b915061405e8261401d565b602082019050919050565b6000602082019050818103600083015261408281614046565b9050919050565b60008151905061409881612f37565b92915050565b6000602082840312156140b4576140b3612ec5565b5b60006140c284828501614089565b91505092915050565b60007bffffffffffffffffffffffffffffffffffffffffffffffffffffffff82169050919050565b60006140fe826140cb565b9150614109836140cb565b9250817bffffffffffffffffffffffffffffffffffffffffffffffffffffffff048311821515161561413e5761413d613774565b5b828202905092915050565b6000614154826140cb565b915061415f836140cb565b92508261416f5761416e61391b565b5b82820490509291505056fea264697066735822122088f76c3d0545c434fff724e4961ebf0c44badae13df11487c38343d1b043fa6764736f6c634300080d0033",
  "immutableReferences": {},
  "source": "// SPDX-License-Identifier: GPL-3.0\npragma solidity >0.7.0 <0.9.0;\n\nimport './interfaces/IPancakePair.sol';\nimport './DIYERC20.sol';\nimport './libraries/Math.sol';\nimport './libraries/UQ112x112.sol';\nimport './interfaces/IERC20.sol';\nimport './interfaces/IPancakeFactory.sol';\nimport './interfaces/IPancakeCallee.sol';\n\ncontract DIYPair is IPancakePair, DIYERC20 {\n    using SafeMath  for uint;\n    using UQ112x112 for uint224;\n\n    uint public constant MINIMUM_LIQUIDITY = 10**3;\n    bytes4 private constant SELECTOR = bytes4(keccak256(bytes('transfer(address,uint256)')));\n\n    address public factory;\n    address public token0;\n    address public token1;\n\n    uint112 private reserve0;           // uses single storage slot, accessible via getReserves\n    uint112 private reserve1;           // uses single storage slot, accessible via getReserves\n    uint32  private blockTimestampLast; // uses single storage slot, accessible via getReserves\n\n    uint public price0CumulativeLast;\n    uint public price1CumulativeLast;\n    uint public kLast; // reserve0 * reserve1, as of immediately after the most recent liquidity event\n\n    // Prevent reentrancy abuse \n    uint private unlocked = 1;\n    modifier lock() {\n        require(unlocked == 1, 'DIY: LOCKED');\n        unlocked = 0;\n        _;\n        unlocked = 1;\n    }\n\n    function getReserves() public view returns (uint112 _reserve0, uint112 _reserve1, uint32 _blockTimestampLast) {\n        _reserve0 = reserve0;\n        _reserve1 = reserve1;\n        _blockTimestampLast = blockTimestampLast;\n    }\n\n    function _safeTransfer(address token, address to, uint value) private {\n        token.call(abi.encodeWithSelector(SELECTOR, to, value));\n        // (bool success, bytes memory data) = token.call(abi.encodeWithSelector(SELECTOR, to, value));\n        // require(success && (data.length == 0 || abi.decode(data, (bool))), 'DIY: TRANSFER_FAILED');\n    }\n\n    constructor() {\n        factory = msg.sender;\n    }\n\n    // Copy pasted function for inheritance purpose\n    function _transferToken(address from, address to, uint value) private {\n        balanceOf[from] = balanceOf[from].sub(value);\n        balanceOf[to] = balanceOf[to].add(value);\n        emit Transfer(from, to, value);\n    }\n\n    // Copy pasted function for inheritance purpose\n    function transferFrom(address from, address to, uint value) external virtual override (IPancakePair, DIYERC20) returns (bool) {\n        if (allowance[from][msg.sender] >= value) {\n            allowance[from][msg.sender] = allowance[from][msg.sender].sub(value);\n            _transferToken(from, to, value);\n            return true;\n        }\n        return false;\n    }\n\n    // Copy pasted function for inheritance purpose\n    function _approveToken(address owner, address spender, uint value) private {\n        allowance[owner][spender] = value;\n        emit Approval(owner, spender, value);\n    }\n\n    // Copy pasted function for inheritance purpose\n    function permit(address owner, address spender, uint value, uint deadline, uint8 v, bytes32 r, bytes32 s) external virtual override (IPancakePair, DIYERC20) {\n        require(deadline >= block.timestamp, 'DIY: EXPIRED');\n        bytes32 digest = keccak256(\n            abi.encodePacked(\n                '\\x19\\x01',\n                DOMAIN_SEPARATOR,\n                keccak256(abi.encode(PERMIT_TYPEHASH, owner, spender, value, nonces[owner]++, deadline))\n            )\n        );\n        address recoveredAddress = ecrecover(digest, v, r, s);\n        require(recoveredAddress != address(0) && recoveredAddress == owner, 'DIY: INVALID_SIGNATURE');\n        _approveToken(owner, spender, value);\n    }\n\n    // called once by the factory at time of deployment\n    function initialize(address _token0, address _token1) external {\n        require(msg.sender == factory, 'DIY: FORBIDDEN'); // sufficient check\n        token0 = _token0;\n        token1 = _token1;\n    }\n\n    // update reserves and, on the first call per block, price accumulators\n    function _update(uint balance0, uint balance1, uint112 _reserve0, uint112 _reserve1) private {\n        require(balance0 <= 2**112 - 1 && balance1 <= 2**112 - 1, 'DIYERC20: OVERFLOW');\n        uint32 blockTimestamp = uint32(block.timestamp % 2**32);\n        uint32 timeElapsed = blockTimestamp - blockTimestampLast; // overflow is desired\n        if (timeElapsed > 0 && _reserve0 != 0 && _reserve1 != 0) {\n            // * never overflows, and + overflow is desired\n            price0CumulativeLast += uint(UQ112x112.encode(_reserve1).uqdiv(_reserve0)) * timeElapsed;\n            price1CumulativeLast += uint(UQ112x112.encode(_reserve0).uqdiv(_reserve1)) * timeElapsed;\n        }\n        reserve0 = uint112(balance0);\n        reserve1 = uint112(balance1);\n        blockTimestampLast = blockTimestamp;\n        emit Sync(reserve0, reserve1);\n    }\n\n    // if fee is on, mint liquidity equivalent to 1/6th of the growth in sqrt(k)\n    function _mintFee(uint112 _reserve0, uint112 _reserve1) private returns (bool feeOn) {\n        address feeTo = IPancakeFactory(factory).feeTo();\n        feeOn = feeTo != address(0);\n        uint _kLast = kLast; // gas savings\n        if (feeOn) {\n            if (_kLast != 0) {\n                uint rootK = Math.sqrt(uint(_reserve0).mul(_reserve1));\n                uint rootKLast = Math.sqrt(_kLast);\n                if (rootK > rootKLast) {\n                    uint numerator = totalSupply.mul(rootK.sub(rootKLast));\n                    uint denominator = rootK.mul(3).add(rootKLast);\n                    uint liquidity = numerator / denominator;\n                    if (liquidity > 0) _mint(feeTo, liquidity);\n                }\n            }\n        } else if (_kLast != 0) {\n            kLast = 0;\n        }\n    }\n\n    // 1. Mint liquidity tokens and send to callers\n    // 2. Update reserve\n    // this low-level function should be called from a contract which performs important safety checks\n\n    event Liquidity (uint amount0, uint amount1, uint liquidity);\n\n    function mint(address to) external lock returns (uint liquidity) {\n        (uint112 _reserve0, uint112 _reserve1,) = getReserves(); // gas savings\n        uint balance0 = IERC20(token0).balanceOf(address(this));\n        uint balance1 = IERC20(token1).balanceOf(address(this));\n        uint amount0 = balance0.sub(_reserve0);\n        uint amount1 = balance1.sub(_reserve1);\n\n        bool feeOn = _mintFee(_reserve0, _reserve1);\n        uint _totalSupply = totalSupply; // gas savings, must be defined here since totalSupply can update in _mintFee\n\n        if (_totalSupply == 0) {\n            liquidity = Math.sqrt(amount0.mul(amount1)).sub(MINIMUM_LIQUIDITY);\n            _mint(address(0), MINIMUM_LIQUIDITY); // permanently lock the first MINIMUM_LIQUIDITY tokens\n        } else {\n            liquidity = Math.min(amount0.mul(_totalSupply) / _reserve0, amount1.mul(_totalSupply) / _reserve1);\n        }\n\n        require(liquidity > 0, 'DIY: INSUFFICIENT_LIQUIDITY_MINTED');\n        _mint(to, liquidity);\n\n        _update(balance0, balance1, _reserve0, _reserve1);\n        if (feeOn) kLast = uint(reserve0).mul(reserve1); // reserve0 and reserve1 are up-to-date\n        emit Mint(msg.sender, amount0, amount1);\n    }\n\n    // 1. Send reserve tokens with the same proporation as % liquidity tokens back to the destination\n    // 2. Burn liquidity tokens\n    // this low-level function should be called from a contract which performs important safety checks\n    function burn(address to) external lock returns (uint amount0, uint amount1) {\n        (uint112 _reserve0, uint112 _reserve1,) = getReserves(); // gas savings\n        address _token0 = token0;                                // gas savings\n        address _token1 = token1;                                // gas savings\n        uint balance0 = IERC20(_token0).balanceOf(address(this));\n        uint balance1 = IERC20(_token1).balanceOf(address(this));\n        uint liquidity = balanceOf[address(this)];\n\n        bool feeOn = _mintFee(_reserve0, _reserve1);\n        uint _totalSupply = totalSupply; // gas savings, must be defined here since totalSupply can update in _mintFee\n        amount0 = liquidity.mul(balance0) / _totalSupply; // using balances ensures pro-rata distribution\n        amount1 = liquidity.mul(balance1) / _totalSupply; // using balances ensures pro-rata distribution\n        require(amount0 > 0 && amount1 > 0, 'DIY: INSUFFICIENT_LIQUIDITY_BURNED');\n        _burn(address(this), liquidity);\n        _safeTransfer(_token0, to, amount0);\n        _safeTransfer(_token1, to, amount1);\n        balance0 = IERC20(_token0).balanceOf(address(this));\n        balance1 = IERC20(_token1).balanceOf(address(this));\n\n        _update(balance0, balance1, _reserve0, _reserve1);\n        if (feeOn) kLast = uint(reserve0).mul(reserve1); // reserve0 and reserve1 are up-to-date\n        emit Burn(msg.sender, amount0, amount1, to);\n    }\n\n    // 1. Verify sufficient reserve\n    // 2. Check additional tokens to the pool\n    // 3. Output tokens to destination\n    // 4. Call _update  \n    // this low-level function should be called from a contract which performs important safety checks\n    event Check (uint, uint, uint, uint);\n    function swap(uint amount0Out, uint amount1Out, address to, bytes calldata data) external lock {\n        require(amount0Out > 0 || amount1Out > 0, 'DIY: INSUFFICIENT_OUTPUT_AMOUNT');\n        (uint112 _reserve0, uint112 _reserve1,) = getReserves(); // gas savings\n        require(amount0Out < _reserve0 && amount1Out < _reserve1, 'DIY: INSUFFICIENT_LIQUIDITY');\n\n        uint balance0;\n        uint balance1;\n        { // scope for _token{0,1}, avoids stack too deep errors\n        address _token0 = token0;\n        address _token1 = token1;\n        require(to != _token0 && to != _token1, 'DIY: INVALID_TO');\n        if (amount0Out > 0) _safeTransfer(_token0, to, amount0Out); // optimistically transfer tokens\n        if (amount1Out > 0) _safeTransfer(_token1, to, amount1Out); // optimistically transfer tokens\n        if (data.length > 0) IPancakeCallee(to).pancakeCall(msg.sender, amount0Out, amount1Out, data);\n        balance0 = IERC20(_token0).balanceOf(address(this));\n        balance1 = IERC20(_token1).balanceOf(address(this));\n        emit Check(balance0, balance1, amount0Out, amount1Out);\n        }\n        uint amount0In = balance0 > _reserve0 - amount0Out ? balance0 - (_reserve0 - amount0Out) : 0;\n        uint amount1In = balance1 > _reserve1 - amount1Out ? balance1 - (_reserve1 - amount1Out) : 0;\n        require(amount0In > 0 || amount1In > 0, 'DIY: INSUFFICIENT_INPUT_AMOUNT');\n        { // scope for reserve{0,1}Adjusted, avoids stack too deep errors\n        uint balance0Adjusted = balance0.mul(1000).sub(amount0In.mul(2));\n        uint balance1Adjusted = balance1.mul(1000).sub(amount1In.mul(2));\n        require(balance0Adjusted.mul(balance1Adjusted) >= uint(_reserve0).mul(_reserve1).mul(1000**2), 'DIY: K');\n        }\n\n        _update(balance0, balance1, _reserve0, _reserve1);\n        emit Swap(msg.sender, amount0In, amount1In, amount0Out, amount1Out, to);\n    }\n\n    // force balances to match reserves\n    function skim(address to) external lock {\n        address _token0 = token0; // gas savings\n        address _token1 = token1; // gas savings\n        _safeTransfer(_token0, to, IERC20(_token0).balanceOf(address(this)).sub(reserve0));\n        _safeTransfer(_token1, to, IERC20(_token1).balanceOf(address(this)).sub(reserve1));\n    }\n\n    // force reserves to match balances\n    function sync() external lock {\n        _update(IERC20(token0).balanceOf(address(this)), IERC20(token1).balanceOf(address(this)), reserve0, reserve1);\n    }\n}\n",
  "sourcePath": "/Users/michaelzhou/Desktop/DIYSwap/DIYSwap/contracts/DIYPair.sol",
  "compiler": {
    "name": "solc",
    "version": "0.8.13+commit.abaa5c0e.Emscripten.clang"
  },
  "schemaVersion": "3.4.4",
  "updatedAt": "2022-04-13T13:53:53.636Z",
  "networkType": "ethereum",
  "devdoc": {
    "kind": "dev",
    "methods": {},
    "version": 1
  },
  "userdoc": {
    "kind": "user",
    "methods": {},
    "version": 1
  }
}